:100000000C94150C0C943F0C0C943F0C0C943F0C6E
:100010000C943F0C0C943F0C0C943F0C0C943F0C34
:100020000C943F0C0C943F0C0C942C680C94A96815
:100030000C943F0C0C943F0C0C943F0C0C943F0C14
:100040000C943F0C0C9450520C943F0C0C943F0CAD
:100050000C943F0C0C943F0C0C94985C0C948B67A4
:100060000C943F0C0C943F0C0C943F0C0C943F0CE4
:100070000C943F0C0C943F0C0C943F0C0C943F0CD4
:100080000C943F0C0C943F0C0C943F0C0C943F0CC4
:100090000C943F0C0C943F0C084AD73B3BCE016EAE
:1000A00084BCBFFDC12F3D6C74319ABD56833DDACF
:1000B0003D00C77F11BED9E4BB4C3E916BAAAABEDE
:1000C000000000803F05A84CCDB2D44EB93836A907
:1000D000020C50B9918688083CA6AAAA2ABE000044
:1000E00000803F004E414E494E495459494E46CD3D
:1000F000CCCC3D0AD7233C17B7D13877CC2B3295DF
:1001000095E6241FB14F0A000020410000C84200BC
:10011000401C4620BCBE4CCA1B0E5AAEC59D742066
:1001200020506C616E6E65724275666665724279CA
:100130007465733A20002046726565204D656D6FC9
:1001400072793A2000436F6D70696C65643A204D96
:10015000617220203920323032310A00204C617324
:100160007420557064617465643A20323032312DE8
:1001700030332D3039207C20417574686F723A20FD
:10018000286E6F6E652C2064656661756C742063E3
:100190006F6E666967290A006275676669782D3235
:1001A0002E302E780A0020536F66747761726520B6
:1001B00052657365740A00205761746368646F67E1
:1001C0002052657365740A002042726F776E206F4B
:1001D00075742052657365740A00204578746572E1
:1001E0006E616C2052657365740A00506F7765729A
:1001F00055700A0073746172740A005072696E74EB
:1002000065722068616C7465642E206B696C6C2863
:10021000292063616C6C6564210A002121204B490F
:100220004C4C2063617573656420627920746F6F34
:10023000206D75636820696E6163746976652074EA
:10024000696D65202D2063757272656E7420636F11
:100250006D6D616E643A20004D3131322053687506
:1002600074646F776E004D61726C696E004F464624
:10027000004F4E004572726F723A006563686F3AC4
:100280000020453A00205A3A0020593A0020450003
:10029000205A00205900205800583A002054003FAE
:1002A0004A206F7574206F662072616E6765202822
:1002B000302E303120746F20302E33290A00205226
:1002C00000416363656C65726174696F6E3A2050BA
:1002D0000046523A0020466C6F773A2000496E760D
:1002E000616C69642065787472756465720A0020B7
:1002F000643A0020693A0020703A0043290A0061FC
:10030000626C656420286D696E2074656D702000D4
:1003100064697300656E00436F6C64206578747265
:1003200075646573206172652000204D3932205854
:10033000004543484F00494E464F004552524F52E8
:10034000530044525952554E00434F4D4D554E495E
:10035000434154494F4E006F666600310336033BFC
:10036000034203490344454255473A004E6F204D2E
:100370006F76652E0020204D61783A200020204DB8
:10038000696E3A20002000536F667420656E6473B6
:10039000746F70733A20003344205072696E746534
:1003A00072204F46462E00627573793A207061754F
:1003B00073656420666F7220696E7075740A0062DE
:1003C0007573793A2070617573656420666F722069
:1003D000757365720A00627573793A2070726F6383
:1003E000657373696E670A0020496E76616C696493
:1003F0002065787472756465722000546F6F206692
:1004000061722066726F6D207265666572656E63DB
:100410006520706F696E740A004D323036205800C6
:10042000FFFFFF0000000000000000000000004F80
:10043000666673657473204170706C696564004D05
:100440003131332053004361703A004D45415450DF
:1004500041434B00434F4F4C45525F54454D50452F
:10046000524154555245004348414D4245525F5414
:10047000454D504552415455524500424142595311
:1004800054455050494E470041524353004D4F543C
:10049000494F4E5F4D4F44455300544845524D41DE
:1004A0004C5F50524F54454354494F4E004C4F4EB1
:1004B000475F46494C454E414D45004155544F52CA
:1004C00045504F52545F53445F5354415455530069
:1004D0005245504541540053444341524400505208
:1004E0004F4D50545F535550504F525400454D4559
:1004F0005247454E43595F50415253455200434184
:1005000053455F4C494748545F4252494748544E0F
:1005100045535300544F47474C455F4C4947485457
:100520005300534F4654574152455F504F57455221
:10053000004255494C445F50455243454E54004C8F
:100540004556454C494E475F44415441005A5F501F
:10055000524F42450052554E4F5554004155544F4D
:100560004C4556454C005052494E545F4A4F42004C
:1005700050524F4752455353004155544F524550E6
:100580004F52545F54454D5000564F4C554D4554B5
:1005900052494300454550524F4D0042494E415249
:1005A000595F46494C455F5452414E5346455200AF
:1005B00053455249414C5F584F4E5F584F46460095
:1005C0004649524D574152455F4E414D453A4D6166
:1005D000726C696E206275676669782D322E302ED6
:1005E0007820284D6172202039203230323120327B
:1005F000313A35333A33372920534F555243455F0B
:10060000434F44455F55524C3A6769746875622E92
:10061000636F6D2F4D61726C696E4669726D7761A3
:1006200072652F4D61726C696E2050524F544F436A
:100630004F4C5F56455253494F4E3A312E30204D64
:10064000414348494E455F545950453A3344205040
:1006500072696E7465722045585452554445525F14
:10066000434F554E543A3120555549443A636564D9
:1006700065326132662D343161322D343734382D94
:10068000396231322D63353563363266333637663B
:10069000660A002F2F0047322F4733206261642003
:1006A000706172616D65746572730A00536C656583
:1006B000702E2E2E00220A00556E6B6E6F776E2004
:1006C000636F6D6D616E643A2022005072696E74C2
:1006D00065722073746F7070656420647565207432
:1006E0006F206572726F72732E204669782074686D
:1006F00065206572726F7220616E6420757365206B
:100700004D39393920746F20726573746172742E9B
:10071000202854656D706572617475726520697307
:100720002072657365742E2053657420697420618E
:10073000667465722072657374617274696E67297C
:100740000A004E6F20436865636B73756D2077698F
:100750007468206C696E65206E756D6265722C2000
:100760004C617374204C696E653A20006368656360
:100770006B73756D206D69736D617463682C204CAB
:10078000617374204C696E653A20004C696E652077
:100790004E756D626572206973206E6F74204C61B6
:1007A0007374204C696E65204E756D6265722B31D5
:1007B0002C204C617374204C696E653A20004D31D9
:1007C00031300053657269616C20737461747573A4
:1007D000206D69736D617463680A00526573656E9C
:1007E000643A20006F6B0053544F505045442E2004
:1007F000005072696E742074696D653A2000256935
:10080000730025696D2025697300256968202569B5
:100810006D20256973002569642025696820256994
:100820006D20256973002569792025696420256973
:10083000682025696D20256973006F6B005049445D
:10084000204175746F74756E65206661696C6564AE
:100850002120426164206865617465722069640AC0
:1008600000504944204175746F74756E65006F7057
:10087000656E00545249474745524544003A2000AE
:100880007A5F6D696E00795F6D696E00785F6D6982
:100890006E005265706F7274696E6720656E647366
:1008A000746F70207374617475730A00205A3A0073
:1008B00020593A0020583A00656E6473746F707363
:1008C000206869743A2000486F6D696E6720466140
:1008D000696C6564005761726E696E673A20486F93
:1008E0006D696E672042756D702044697669736F1B
:1008F00072203C20310A0002020420746F6F206CC9
:100900006F6E6720657874727573696F6E20707290
:100910006576656E7465640A0020636F6C6420659B
:100920007874727573696F6E2070726576656E7417
:1009300065640A000000A0400000A04000000040E4
:10094000000048430000484300004843000048437B
:100950000000484300004843000000000000000081
:1009600000000000486F6D652025732573257320F6
:10097000466972737400DB0FC93F45BCDA3F8FB321
:100980000240FCF0274056946140FE4B9B4084A5FA
:10099000D840E0231841346A5641E859974164DB56
:1009A000D5416E271742B4B75542CE1A9742C8AE0A
:1009B000D542B5885A43D40684BFA65FA7BF744307
:1009C000E0BF10B11AC01C2C58C0E8F697C0B84957
:1009D000D6C04E4E17C124D355C1802497C1A0B5AF
:1009E000D5C1121A17C244AE55C2781797C26CAC63
:1009F000D5C267885AC320746F6F206C6F6E6720F2
:100A0000657874727573696F6E2070726576656E45
:100A10007465640A0020636F6C6420657874727575
:100A200073696F6E2070726576656E7465640A0016
:100A30003B200020440020490020204D333031204D
:100A400050005049442073657474696E67733A00AE
:100A500020204D323036205800486F6D65206F667B
:100A6000667365743A00204A0020530020204D32FE
:100A70003035204200416476616E6365643A2042FD
:100A80003C6D696E5F7365676D656E745F74696DEB
:100A9000655F75733E20533C6D696E5F6665656486
:100AA000726174653E20543C6D696E5F747261764C
:100AB000656C5F66656564726174653E204A3C6A78
:100AC000756E635F6465763E0020520020204D32D3
:100AD0003034205000416363656C65726174696FE6
:100AE0006E2028756E6974732F7332293A20503C3A
:100AF0007072696E745F616363656C3E20523C7214
:100B00006574726163745F616363656C3E20543C1D
:100B100074726176656C5F616363656C3E00202072
:100B20004D3230312058004D6178696D756D20412E
:100B30006363656C65726174696F6E2028756E6998
:100B400074732F7332293A0020204D3230332058ED
:100B5000004D6178696D756D2066656564726174BC
:100B600065732028756E6974732F73293A00537466
:100B70006570732070657220756E69743A00204448
:100B80000020204D323030205300204469736162D0
:100B90006C65640A0046696C616D656E74207365EE
:100BA0007474696E67733A00202047323120202028
:100BB000203B20556E69747320696E206D6D002096
:100BC000286D6D290000009643000096430000A0A8
:100BD000400000C8410000A0420000A0420000C840
:100BE000430000FA43B80B0000B80B00006400009B
:100BF000001027000020436F756E7420583A0004DF
:100C00003700001E290000511B0000581000001082
:100C1000090000CC0400007802000041010000241B
:100C2000F4D43050C38E20C2A24017828B701112B0
:100C30007A910D816CD90AA861E108C758660761ED
:100C40005143061E4B5D05C145A7041A4111040915
:100C50003D9803713931034036DB0265339102D48C
:100C6000305402802E1D02632CEE01752AC501B09E
:100C700028A001102781018F2564012B244B01E05E
:100C8000223401AC211F018D200D01801FFC008446
:100C90001EED00971DDF00B81CD200E61BC6002029
:100CA0001BBC00641AB200B219A8000A19A0006A9D
:100CB000189900D117910040178B00B516840031A8
:100CC000167E00B31579003A157300C7146F0058EB
:100CD000146A00EE1366008813630025135E00C7D4
:100CE000125B006C12570015125400C111510070B4
:100CF000114F0021114B00D61049008D10470046BE
:100D000010440002104200C00F4000800F3E00421D
:100D10000F3C00060F3B00CB0E3800930E37005CF3
:100D20000E3500270E3400F30D3200C10D31009056
:100D30000D3000600D2E00320D2D00050D2C00D958
:100D40000C2B00AE0C2900850C29005C0C2700350B
:100D50000C27000E0C2600E80B2400C40B2400A076
:100D60000B23007D0B23005A0B2100390B210018A7
:100D70000B2000F80A1F00D90A1E00BB0A1E009DA6
:100D80000A1D00800A1D00630A1C00470A1B002C74
:100D90000A1B00110A1A00F7091A00DD091900C41C
:100DA000091900AB091900920917007B09180063A3
:100DB0000917004C09160036091600200916000A0A
:100DC000091500F5081500E0081400CC081400B857
:100DD000081400A4081400900813007D0812006B8A
:100DE00008130058081200460812003408110023A6
:100DF0000811001208110001081100F0071000E0AE
:100E0000071000D0071000C0071000B0070F00A1A6
:100E100007100091070E0083070F0074070F00658D
:100E2000070E0057070E0049070E003B070D002E66
:100E3000070E0020070D0013070D0006070D00F92F
:100E4000060C00ED060D00E0060C00D4060C00C8F0
:100E5000060C00BC060C00B0060C00A4060B0099A2
:100E6000060C008D060B0082060B0077060B006C4B
:100E7000060B0061060A0057060B004C060A0042EA
:100E8000060A0038060A002E060A0024060A001A7E
:100E9000060A001006090007060A00FD050900F40D
:100EA000050900EB050900E2050900D9050900D094
:100EB000050900C7050900BE050900B5050800AD14
:100EC000050800A50509009C050800940508008C8C
:100ED000050800840508007C050800740508006CFE
:100EE000050700650508005D050700560508004E6A
:100EF00005070047050700400508003805070031D1
:100F00000507002A050700230507001C0506001633
:100F10000507000F0507000805060002050700FB8E
:100F2000040600F5040700EE040600E8040600E2EB
:100F3000040700DB040600D5040600CF040600C940
:100F4000040600C3040600BD040600B7040600B191
:100F5000040500AC040600A6040600A00405009BDE
:100F600004060095040500900406008A0405008527
:100F7000040500800406007A04050075040500706D
:100F80000405006B04050066040500610405005CAF
:100F900004050057040500520405004D04050048EF
:100FA000040500430405003E0404003A040500352E
:100FB000040500300404002C040500270404002369
:100FC0000405001E0404001A0404001604050011A0
:100FD0000404000D040400090405000404040000D6
:100FE000040400FC030400F8030400F4030400F00C
:100FF000030400EC030400E8030400E4030400E03D
:10100000030400DC030400D8030400D4030400D06C
:10101000030400CC030400C8030300C50303002439
:10102000F404D9201BC40C5C0E9804C4095F02654B
:10103000077101F405F900FB04B30048048700C1FF
:101040000369005803550003034500BE023A0084BB
:1010500002310053022A002902250004022000E484
:10106000011C00C8011900AF011700980114008489
:10107000011300710110006101100051010E0043C5
:10108000010D0036010B002B010B0020010B001598
:101090000109000C01090003010800FB000800F32E
:1010A000000800EB000700E4000600DE000600D8A0
:1010B000000600D2000600CC000500C7000500C2F3
:1010C000000500BD000400B9000400B5000400B133
:1010D000000400AD000400A9000400A5000300A264
:1010E0000003009F0004009B00030098000300958C
:1010F00000020093000300900003008D0002008BAB
:1011000000030088000200860002008400030081C2
:101110000002007F0002007D0002007B00020079D7
:1011200000020077000100760002007400020072E5
:10113000000100710002006F0002006D0001006CF0
:101140000002006A000100690002006700010066F9
:1011500000010065000100640002006200010061FE
:10116000000100600001005F0002005D0001005C02
:101170000001005B0001005A000100590001005805
:101180000001005700010056000100550001005405
:101190000001005300000053000100520001005103
:1011A000000100500001004F0001004E0000004E01
:1011B0000001004D0001004C0001004B0000004BFD
:1011C0000001004A000100490001004800000048F9
:1011D00000010047000100460000004600010045F4
:1011E00000000045000100440001004300000043EE
:1011F00000010042000000420001004100000041E7
:10120000000100400001003F0000003F0001003EDF
:101210000000003E0001003D0000003D0001003CD8
:101220000000003C0000003C0001003B0000003BCF
:101230000001003A0000003A0001003900000039C6
:1012400000010038000000380000003800010037BD
:1012500000000037000100360000003600000036B4
:1012600000010035000000350000003500010034A9
:10127000000000340000003400010033000000339F
:101280000000003300010032000000320000003294
:101290000001003100000031000000310001003089
:1012A00000000030000000300001002F0000002F7F
:1012B0000000002F0000002F0001002E0000002E73
:1012C0000000002E0001002D0000002D0000002D68
:1012D0000000002D0001002C0000002C0000002C5C
:1012E0000000002C0001002B0000002B0000002B50
:1012F0000000002B0001002A0000002A0000002A44
:101300000000002A00010029000000290000002937
:10131000000000290000002900010028000000282A
:10132000000000280000002800000028000100271D
:101330000000002700000027000000270000002711
:101340000001002600000026000000260000002604
:1013500000000026000100250000002500000025F7
:1013600000000025000000250000002500010024E9
:1013700000000024000000240000002400000024DD
:1013800000010023000000230000002300000023D0
:1013900000000023000000230000002300010022C1
:1013A00000000022000000220000002200000022B5
:1013B00000000022000100210000002100000021A7
:1013C0000000002100000021000000210000002199
:1013D000000100200000002000000020000000208C
:1013E000000000200000002000000020000000207D
:1013F0000001001F0000001F0000001F0000001F70
:101400000000001F0000001F0000001F0001001E60
:101410000000001E0000001E0000001E0000002052
:10142000573A00202F0020403A00202D20496E76A8
:10143000616C6964206578747275646572206E757C
:101440006D62657220210A004D494E54454D502071
:10145000747269676765726564004D415854454D03
:101460005020747269676765726564006265640024
:101470002C2073797374656D2073746F707065645C
:1014800021204865617465725F49443A20004B64CD
:1014900020004B6920004B702000504944204175CA
:1014A000746F74756E652066696E69736865642112
:1014B0002050757420746865206C617374204B70C3
:1014C0002C204B6920616E64204B6420636F6E7327
:1014D00074616E74732066726F6D2062656C6F77D5
:1014E00020696E746F20436F6E66696775726174F0
:1014F000696F6E2E680A00504944204175746F74FC
:10150000756E65206661696C6564212074696D651E
:101510006F75740A00504944204175746F74756E7C
:1015200065206661696C6564212054656D70657223
:10153000617475726520746F6F20686967680A004E
:10154000204B643A2000204B693A2000204B703A2F
:10155000200020436C617373696320504944200A62
:1015600000204E6F206F76657273686F6F740A008B
:101570002054753A2000204B753A2000206D617888
:101580003A2000206D696E3A200020643A20002045
:10159000626961733A2000504944204175746F7448
:1015A000756E652073746172740A0050494420415D
:1015B00075746F74756E65206661696C6564212051
:1015C00054656D706572617475726520746F6F20FB
:1015D000686967680A0045310023646566696E655D
:1015E0002044454641554C545F0048656174696E1E
:1015F00067206661696C656400546865726D616C32
:101600002052756E617761790070012C019001277D
:1016100001B0012201C0011D01F0011801100213E7
:101620000130020E016002090190020401C002FFB4
:10163000000003FA004003F5008003F000D003EB44
:10164000002004E6007004E100E004DC004005D75F
:1016500000C005D2004006CD00D006C8008007C3F8
:10166000003008BE00F008B900C009B400B00AAFED
:1016700000B00BAA00D00CA500000EA000500F9BDC
:1016800000C01096005012910000148C00C0158705
:1016900000B0178200B0197D00D01B7800001E73C7
:1016A0000040206E0090226900F024640040275F13
:1016B0000090295A00E02B5500102E500020304B8E
:1016C0000010324600E033410090353C00103737BF
:1016D0000070383200A0392D00B03A2800A03B231A
:1016E00000603C1E00103D1900903D1400103E0F9C
:1016F00000703E0A00C03E0500003F0000403FFB76
:10170000FF803FF6FFC03FF1FF4572723A204D491E
:101710004E54454D50004572723A204D4158544543
:101720004D5000544845524D414C2052554E415762
:1017300041590048656174696E67204661696C654E
:101740006400496E76616C696420657874727564B2
:1017500065720A000001000005181200020000C2B4
:10176000174300030000BE170401030904A417185F
:10177000020309048C1716030309047E170C0C03DB
:1017800031003200330034003500000016035500EC
:1017900053004200200053006500720069006100A0
:1017A0006C00000018035400650065006E007300B3
:1017B00079006400750069006E006F00000004038A
:1017C000090409024300020100C0320904000001BB
:1017D0000202010005240010010524010001042477
:1017E00002060524060001070582030800400904DB
:1017F0000100020A0000000705030240000007057F
:1018000084024000001201000202000020C0168382
:10181000047202010203010001C10201803601814C
:1018200036005E0CEF4EF266176C11241FBECFEF30
:10183000D0E2DEBFCDBF11E0A0E0B1E0ECECFEEE07
:1018400000E00BBF02C007900D92AA37B107D9F78D
:101850002AE0AAE7B1E001C01D92AB34B207E1F77C
:101860001CE0C5E1DCE004C02197FE010E948C6C05
:10187000C131D107C9F70E9418670C9464770C94A2
:1018800000000895CF93DF9300D0CDB7DEB720914D
:10189000310A3091320ACE0101962115310519F431
:1018A0008B549A4002C0821B930B9A83898389814F
:1018B0009A810F900F90DF91CF9108958FE39AE076
:1018C00090937B0180937A01089598E288E10FB6A6
:1018D000F894A895809360000FBE909360000895DF
:1018E0000895089543980895779876984798FACF81
:1018F000439A0895779A8091FD038E7F8093FD032C
:10190000769A8091FD038D7F8093FD03479A8091A5
:10191000FD038B7F8093FD03EBCF0C94FD2EC82F2E
:1019200089EE93E030E6019729F0232F2A950000F5
:10193000E9F7F9CFF89489EE93E038EE019729F0B2
:10194000232F2A950000E9F7F9CF0E94585CCC2399
:1019500011F0D0DF01C0CCDFA895FECFC42F0E94CC
:10196000585C36D28BEF91E022D28C2FD8DFDC018D
:101970008D919C91DC01ED91FC910190F081E02D25
:101980000994CF92DF92EF92FF920F931F93CF9320
:10199000C82F0E947E2B0FB6F894C090340AD090C6
:1019A000350AE090360AF090370A0FBECC2341F09A
:1019B000C0928E01D0928F01E0929001F09291013D
:1019C00040918A0150918B0160918C0170918D0141
:1019D000411551056105710531F180918E0190919C
:1019E0008F01A0919001B0919101840F951FA61FC6
:1019F000B71FA7019601281B390B4A0B5B0B57FD3C
:101A000012C0E6D16091B8017091B9018BE192E00A
:101A1000EAD16AE08AE791E0AADF40E060E070E0A6
:101A200080E090E09BDF009104011091050120917E
:101A3000060130910701011511052105310509F451
:101A400048C090910D0580910A05981749F0C09201
:101A50008E01D0928F01E0929001F092910139C0F5
:101A6000C11157C00FB6F8948091340A9091350A8D
:101A7000A091360AB091370A0FBE40918E01509165
:101A80008F016091900170919101400F511F621F71
:101A9000731F841B950BA60BB70BB7FD3AC0809143
:101AA0008001811116C081E080938001779A809136
:101AB000FD038E7F8093FD03769A8091FD038D7FD9
:101AC0008093FD03479A8091FD038B7F8093FD03F4
:101AD0000FDF80917C0190917D01A0917E01B091FA
:101AE0007F01A7019601281B390B4A0B5B0B57FDA1
:101AF00013C00E943F3D34E6C30ED11CE11CF11C13
:101B0000C0927C01D0927D01E0927E01F0927F0133
:101B100003C010928001DDCFCF911F910F91FF90F4
:101B2000EF90DF90CF900895CF92DF92EF92FF92E7
:101B300080E027DF0E94C35F80918101882309F440
:101B40003CC00E94771C80918801811136C0209191
:101B5000060A222391F10FB6F894C090340AD0906F
:101B6000350AE090360AF090370A0FBE8091020ADB
:101B70009091030AA091040AB091050AB701A60149
:101B8000481B590B6A0B7B0B77FD17C030E0A8EEA2
:101B9000B3E00E94A76CC60ED71EE81EF91EC092C5
:101BA000020AD092030AE092040AF092050AFF901A
:101BB000EF90DF90CF900C94275DFF90EF90DF9037
:101BC000CF900895B1DF0E945F290E94C02FFACF05
:101BD000CF92DF92EF92FF92CF9340E052EC61E020
:101BE00070E080917A0190917B010E94A46B0FB606
:101BF000F894C090340AD090350AE090360AF090FC
:101C0000370A0FBE88EEC80E83E0D81EE11CF11C17
:101C100080917A0190917B010E940C6C811111C01E
:101C20000FB6F8948091340A9091350AA091360A43
:101C3000B091370A0FBE8C199D09AE09BF09B7FDD7
:101C4000E7CF84EF91E0B3D080E885BF85BF19DE90
:101C500048DEC4B7C0FF03C08BEE91E0A8D0C1FF3F
:101C600003C08AED91E0A3D0C2FF03C088EC91E0ED
:101C70009ED0C3FF03C087EB91E099D0C5FF03C09E
:101C800086EA91E094D014BE86E692E090D060E2BD
:101C90008AE791E06CDE88E991E089D06AE08AE722
:101CA00091E065DE92D08CE591E081D08ED085E424
:101CB00091E07DD08AD0E6DDBC0186E391E038D2A8
:101CC00060E774E08FE191E0FCD16AE08AE791E09F
:101CD0004EDE06DE0E946F4F80E00E945850209139
:101CE0004504309146044091470450914804609166
:101CF00011047091120480911304909114040E94B5
:101D0000C16C60934504709346048093470490939C
:101D10004804209115043091160440911704509105
:101D200018046091490470914A0480914B04909189
:101D30004C040E94C16C6093490470934A048093E0
:101D40004B0490934C042091190430911A04409153
:101D50001B0450911C0460914D0470914E048091BD
:101D60004F04909150040E94C16C60934D04709395
:101D70004E0480934F04909350040E94B23080E34D
:101D80009AE00E94FC5B0E94A32E0E944B2F0E94AF
:101D90007B549BDD81E080938101CF91FF90EF9098
:101DA000DF90CF900895682F8AE791E0E0CDCF9340
:101DB000DF93FC018491EF012196882319F0F3DF72
:101DC000FE01F8CFDF91CF9108958BE792E0EFCF3E
:101DD00084E792E0ECCF811103C08DE692E002C06F
:101DE00081E792E0E4CF0F931F93CF93DF938B01B2
:101DF000DEDFE8016991662321F08AE791E0B7DD33
:101E0000F9CFDF91CF911F910F9108958F929F92FB
:101E1000AF92BF92CF92DF92EF92FF920F931F93F8
:101E2000CF93DF93CDB7DEB7A0970FB6F894DEBFA0
:101E30000FBECDBF7C01222309F450C041155105CE
:101E400061057105B9F100E0822E912CA12CB12C15
:101E5000102FCC24C394D12CCC0EDD1EC00ED11C6F
:101E600007FDDA94CB01BA01A50194010E944E6CE2
:101E7000942F852FF6016083A901692F782F0F5FBA
:101E8000411551056105710519F71F3F39F1E1E071
:101E9000F0E0EC0FFD1FE10FF11D17FDFA958081B9
:101EA0008A3010F067E301C060E3680FC7015FDDAF
:101EB0001150EBCF60E3A0960FB6F894DEBF0FBED3
:101EC000CDBFDF91CF911F910F91FF90EF90DF90E9
:101ED000CF90BF90AF909F908F9049CDA0960FB6B6
:101EE000F894DEBF0FBECDBFDF91CF911F910F9150
:101EF000FF90EF90DF90CF90BF90AF909F908F902A
:101F000008958F929F92AF92BF92CF92DF92EF92FD
:101F1000FF920F931F93CF938C016A017B01B22E26
:101F200020E030E0A901C701B6010E949A6D87FF49
:101F300007C06DE2C8011BDDF7FAF094F7F8F094E2
:101F4000C0E060E070E080E09FE3CB1541F02DEC55
:101F50003CEC4CEC5DE30E94D86FCF5FF6CF9B0169
:101F6000AC01C701B6010E94C16C6B017C010E94EB
:101F70000E6E4B015C012AE0AB01BC01C80146DFDB
:101F8000CC2381F1C501B4010E943A6E9B01AC01E2
:101F9000C701B6010E94C06C6B017C016EE2C801F2
:101FA000E6DC20E030E040E251E4C701B6010E94E7
:101FB000D86F6B017C010E940E6E4B015C012AE020
:101FC000AB01BC01C80122DFC501B4010E943A6E19
:101FD0009B01AC01C701B6010E94C06C6B017C0182
:101FE000C150F9F6CF911F910F91FF90EF90DF90C4
:101FF000CF90BF90AF909F908F900895CF92DF9237
:10200000EF92FF926A017B01D2DE22E0B701A601C6
:102010008AE791E0FF90EF90DF90CF9072CFCF9260
:10202000DF92EF92FF920F931F93CF93DF936C0198
:102030007B01EA01C901009709F0B9DEF601408190
:1020400051816281738186E992E0D8DFF701408196
:1020500051816281738183E992E0D0DF48815981A7
:102060006A817B8180E992E0C9DF0115110551F099
:10207000C801DF91CF911F910F91FF90EF90DF90FA
:10208000CF9095CE8AE0DF91CF911F910F91FF9075
:10209000EF90DF90CF9087CE242F462F50E060E066
:1020A00070E0B4CECF93C62F82DE4AE050E06C2FB2
:1020B0008AE791E0CF91F0CF242FAB0160E070E090
:1020C000A5CECF93DF93EB0172DE4AE050E0BE0174
:1020D0008AE791E0DF91CF91EFCFCF92DF92EF923D
:1020E000FF921F93CF93DF93EC016A017B01122FC4
:1020F0002A3061F477FF0AC0F094E094D094C09441
:10210000C11CD11CE11CF11C6DE231DC212FB70197
:10211000A601CE01DF91CF911F91FF90EF90DF904C
:10212000CF9074CE242FAB01770F660B770BD5CFF2
:10213000CF93DF93EB013BDE4AE050E0BE018AE73C
:1021400091E0DF91CF91EECFCF92DF92EF92FF92AD
:102150006A017B012CDE2AE0B701A6018AE791E043
:10216000FF90EF90DF90CF90B8CFCF92DF92EF92B9
:10217000FF926B017C0183E3C816D104E104F104F2
:1021800070F082E3C81AD108E108F10862E370E058
:1021900080E090E00E94CB670E94C35FECCFC70154
:1021A000B6010E94CB67FF90EF90DF90CF900C9428
:1021B000C35F81548A3108F047C0E82FF0E04091B6
:1021C000AD015091AE016091AF017091B00104C0BA
:1021D00076956795579547958A95D2F7842F8170A4
:1021E00040FF34C0ED56FE4F9081992341F1E091BC
:1021F000B801F091B901E90FF11D908120ED290F8F
:102200002A3098F09E3211F491810CC09D3211F069
:102210009B3271F4918120ED290F2A3030F09E32EB
:1022200039F4928190539A3018F42E2F9F2F02C0C8
:1022300020E090E02093B4019093B50108951092AE
:10224000B5011092B401089580E008950895B1DFBA
:10225000882341F081E02091B4013091B501232B16
:1022600009F480E008958091B4019091B501009740
:1022700031F04AE050E060E070E00C94F17160E011
:1022800070E0CB0108958F929F92AF92BF92CF9250
:10229000DF92FF920F931F93CF93DF9300D000D074
:1022A000CDB7DEB787E00E94B83481111EC08FE43D
:1022B000CEDF8823B1F08091B4019091B501892BD4
:1022C00009F4A4C0D0DF97FD10C0CDDF6F3F7105CA
:1022D0008105910511F00CF099C0C5DF611196C020
:1022E00004C08FE466DF811191C00E94283E1092E5
:1022F00009010FB6F8948091340A9091350AA091A3
:10230000360AB091370A0FBE80938E0190938F01E9
:10231000A0939001B09391010E94D63281E00E9477
:10232000532F8AE546DFF82E88E543DF182F89E52D
:1023300040DF181369C0F11611F0012F04C001E04D
:1023400011E0FF24F39482E582DF882321F180915C
:10235000B4019091B501009719F1FC016F01B190A2
:102360002B2D2F7D99F025E4B21619F025E6B21237
:10237000F5CFF601108260E070E08091B401909199
:10238000B5010E949E70F601B0820EC060E070E060
:102390000E949E7009C060E070E080EA90E404C092
:1023A00060E070E080E090E04B015C0189829A82FD
:1023B000AB82BC8220E030E0A901C501B4010E94DB
:1023C0009A6D882349F0111102C0002379F060E072
:1023D000CE0101960E945F32112319F080E00E9425
:1023E0001E36002319F081E00E941E36FF2019F0EE
:1023F00082E00E941E360E94B2300E94282F0E9466
:10240000DE320E94A63002C0082F9DCF0F900F90A1
:102410000F900F90DF91CF911F910F91FF90DF9060
:10242000CF90BF90AF909F908F9008950F931F9380
:10243000CF938091B4019091B501009711F1FC0107
:102440008F01C1912C2F2F7DA9F0C53411F0C53615
:10245000B9F7F801108260E070E08091B4019091CA
:10246000B5010E949E70F801C083562F472F382F68
:10247000292F0BC060E070E0CF911F910F910C9459
:102480009E7050E040E030E020E0652F742F832FF5
:10249000922FCF911F910F910895CF92DF92EF92DB
:1024A000FF92CF93DF930E940E1DC82F87FD87C038
:1024B000D091BA0184E4CBDE882309F454C0B6DF9E
:1024C0006B017C0120E030E0A9010E949A6D882315
:1024D00009F457C084E0C802F0011124E956FB4F0B
:1024E000C082D182E282F38220E030E0A901C701FC
:1024F000B6010E949D6F1816D4F420E030E040E051
:102500005FE3C701B6010E94D86F9B01AC010E9436
:10251000D86F2BED3FE049E450E40E94D86F609300
:10252000340170933501809336019093370120E098
:1025300030E0A9016091970470919804809199040A
:1025400090919A040E949A6D81110CC080E090E0F5
:10255000A0EEBFE38093970490939804A09399040E
:10256000B0939A04D1E083E572DEC82F8823F9F096
:102570008091B4019091B501892BF9F074DE97FF39
:102580000BC0C0E0C093BA01DF91CF91FF90EF90F4
:10259000DF90CF900C94623D66DE6F3F7105810540
:1025A000910509F07CF75FDE611107C0EACF83E592
:1025B00000DE811102C0CD2FE5CFC1E0E3CFDF9176
:1025C000CF91FF90EF90DF90CF9008950F931F93DE
:1025D000CF930E940E1D87FD12C006E511E0C0E0FA
:1025E000F80181918F01E5DD882331F01FDFAB0118
:1025F000BC018C2F0E94904ECF5FC43089F7CF91E1
:102600001F910F9108950F931F93CF930E940E1D5A
:1026100087FD12C006E511E0C0E0F80181918F014D
:10262000C8DD882331F002DFAB01BC018C2F0E9492
:10263000A44ECF5FC43089F7CF911F910F910895B9
:10264000CF92DF92EF92FF928091AD0181FD09C0A0
:102650008091AE0181FD05C08091AF018C7009F4BD
:1026600060C082E4A6DD8823C1F08091B40190911E
:10267000B501009739F04AE050E060E070E00E9458
:102680001C7303C060E070E0CB016093CF047093D3
:10269000D0048093D1049093D20483E58ADD88230B
:1026A00049F0C4DE6093FF04709300058093010538
:1026B0009093020584E57DDD882349F0B7DE6093C1
:1026C00003057093040580930505909306058AE43D
:1026D00070DD882331F1AADE6B017C012AE037ED41
:1026E00043E25CE30E949D6F87FD13C02AE939E94C
:1026F00049E95EE3C701B6010E949A6D18164CF0D5
:10270000C0929B04D0929C04E0929D04F0929E049F
:1027100008C05EDB8FE992E0FF90EF90DF90CF90F2
:1027200046CBFF90EF90DF90CF9008958091AE015F
:1027300087FD05C08091AF018E7009F43DC083E52F
:1027400086DD882389F072DE6093F3047093F404CD
:102750008093F5049093F6046093FB047093FC045B
:102760008093FD049093FE0480E571DD882349F099
:102770005DDE6093F3047093F4048093F50490930A
:10278000F60482E564DD882349F050DE6093F704A7
:102790007093F8048093F9049093FA0484E557DD6C
:1027A000882379F143DE6093FB047093FC048093EB
:1027B000FD049093FE0408954091F3045091F404B5
:1027C0006091F5047091F60481EC92E017DC409181
:1027D000F7045091F8046091F9047091FA048EEBBB
:1027E00092E00CDC4091FB045091FC046091FD04EC
:1027F0007091FE048CE992E001DC6AE08AE791E0E6
:10280000B6C8089582E4D5DC882341F08091220186
:1028100090912301909302018093010182E5C9DC2C
:10282000882341F08091010190910201909323014E
:102830008093220183E5BDDC882331F08091B401CF
:102840009091B5010097D9F48091AD019091AE01BE
:10285000A091AF01B091B001892B8A2B8B2BD1F4C1
:10286000609122017091230181ED92E061DC65E2CB
:102870008AE791E07CD86AE08AE791E078C84AE08C
:1028800050E060E070E00E94F1717093230160936A
:102890002201DACF08950F931F93CF93DF930E9405
:1028A0000E1DC82F87FD5BC083E583DC0C2E000C5A
:1028B000DD0B8823A1F18091B4019091B5010097BF
:1028C00071F14AE050E060E070E00E94F171FE01B9
:1028D000EE0FFF1FE45CFE4F71836083CC0FDD1FA2
:1028E000CC0FDD1F8E01085C1E4F072E000C880BDD
:1028F000990B0E943C6E2AE037ED43E25CE30E94B4
:10290000D86FCD56DB4F288139814A815B810E9487
:10291000D86FF801608371838283938320C055DA76
:1029200065E48AE791E023D8BE01605D7F4F8AE7C6
:1029300091E01DD8CC0FDD1FC45CDE4F688179812A
:1029400085ED92E0F5DB65E28AE791E010D86AE078
:102950008AE791E0DF91CF911F910F9108C8DF9135
:10296000CF911F910F91089585E423DC81110EC052
:1029700080E51FDC882391F059DD6093240A709371
:10298000250A8093260A9093270A08C08091B401F3
:102990009091B501892B09F05EC0EACF89E409DC8A
:1029A000882379F043DD2CEA35EC47E25EE30E94B0
:1029B000D86F6093280A7093290A80932A0A90930B
:1029C0002B0A84E4F6DB882379F030DD2CEA35EC41
:1029D00047E25EE30E94A16D60932C0A70932D0A7A
:1029E00080932E0A90932F0AF0D94091240A509197
:1029F000250A6091260A7091270A87EF92E0FEDA95
:102A00002CEA35EC47E25EE36091280A7091290ACE
:102A100080912A0A90912B0A0E94A16DAB01BC0102
:102A200083EF92E0EBDA2CEA35EC47E25EE360916B
:102A30002C0A70912D0A80912E0A90912F0A0E94E3
:102A4000D86FAB01BC018FEE92E0D8DA6AE08AE77A
:102A500091E00C94B70C07DC97FD8ACF04DC6F3F44
:102A600071058105910509F024F4FDDB662309F465
:102A70007FCFAED98DED92E09AC90F931F93CF937C
:102A8000DF9383E596DBD82F882309F43EC080913D
:102A9000B4019091B501009721F1FC018F01C19122
:102AA0002C2F2F7DA9F0C53411F0C536B9F7F801E8
:102AB000108260E070E08091B4019091B5010E94B5
:102AC0009E70F801C083562F472F382F292F0DC035
:102AD00060E070E00E949E70562F472F382F292FFC
:102AE00004C050E040E030E020E0652F742F832FD9
:102AF000922F0E94096E70934E0160934D0121E068
:102B0000672B09F020E02093110A80E552DBC82FE3
:102B10008823E9F080914D0190914E01892BA1F01D
:102B20008091B4019091B501892B71F09CDB97FDE8
:102B30000AC099DB6F3F71058105910509F024F406
:102B400092DB611101C0C0E0C093110A1EC0D11117
:102B50001CC03BD987E193E02AD98091110A8111E9
:102B600003C080E193E002C084E193E020D960914A
:102B70004D0170914E018FEF92E0DADA8BEF92E027
:102B8000DF91CF911F910F9112C9DF91CF911F91CA
:102B90000F910895882311F018D905C060E28AE7E3
:102BA00091E00E94B70C4091D3045091D4046091FD
:102BB000D5047091D6048AE293E020DA4091D704DC
:102BC0005091D8046091D9047091DA0483E992E0BD
:102BD00015DA4091DB045091DC046091DD047091C2
:102BE000DE0480E992E00ADA4091DF045091E004CB
:102BF0006091E1047091E2048DE892E0FFD96AE00F
:102C00008AE791E00C94B70C4F925F926F927F929B
:102C1000AF92BF92CF92DF92EF92FF920F931F93EA
:102C2000CF93FCD687FD9EC09091AD0194FD04C06A
:102C30009091AF0197FF08C08AE5A82E81E0B82ED9
:102C40000FEB14E0C0E014C09091B0019370A1F7B5
:102C5000682F81E0CF911F910F91FF90EF90DF904F
:102C6000CF90BF90AF907F906F905F904F9092CF3A
:102C7000F50181915F019DDA882309F457C08091A5
:102C8000B4019091B501892B09F450C0C33009F00B
:102C900062C0CCDB6B017C0120E030E040EA51E413
:102CA0000E949A6D87FF3AC0A70196016091DF04E8
:102CB0007091E0048091E1049091E2040E94A16D82
:102CC0002B013C019B01AC016091EF047091F00479
:102CD0008091F1049091F2040E94D86F6093EF0408
:102CE0007093F0048093F1049093F2046091BB041C
:102CF0007091BC048091BD049091BE040E943A6E14
:102D0000A30192010E94D86F0E940E6E6093BB04D3
:102D10007093BC048093BD049093BE04C092DF0402
:102D2000D092E004E092E104F092E204CF5F0C5F05
:102D30001F4FC43009F09CCFCF911F910F91FF908E
:102D4000EF90DF90CF90BF90AF907F906F905F90AB
:102D50004F900C94664E6ADBF801648B758B868B02
:102D6000978BE4CFCF911F910F91FF90EF90DF9061
:102D7000CF90BF90AF907F906F905F904F900895ED
:102D800010920001089541E060E070E088E592E073
:102D90000C94AE0C0C944731FF920F931F93CF937A
:102DA000DF9383E506DA8823D1F083E502DA811127
:102DB00002C060E012C08091B4019091B501892BEE
:102DC000C1F351DA97FDF5CF4EDA6F3F71058105FA
:102DD000910511F00CF046C046DA609382010E9422
:102DE000E50E85E693E00E94D70E8091820188234C
:102DF00059F10BE513E0C0E0D0E020E080918201C2
:102E000090E0A0E0B0E00C2E04C0B695A795979591
:102E100087950A94D2F780FF10C0FF24F394F20E36
:102E2000222329F06CE28AE791E00E94B70CF801B6
:102E3000859194910E94D70E2F2D21960E5F1F4FE2
:102E4000C530D105D9F604C087E593E00E94D70EBE
:102E50006AE08AE791E0DF91CF911F910F91FF9097
:102E60000C94B70C6FEFB9CF81E00C94462F80E043
:102E70000C94462F8091AD0184FD08C08091AF0174
:102E800087FD04C08091B001837091F088E591D9ED
:102E90008111779889E58DD9811176988AE589D94C
:102EA0008111479885E485D9882349F00C94720CE8
:102EB00060E08CE693E00E94662E0C94740C0895FA
:102EC0000F931F93CF9383E574D9882331F08091BA
:102ED000B4019091B501009791F48091AD0184FD0A
:102EE0004DC08091AF0187FD49C08091B0018370D2
:102EF00009F044C0CF911F910F910C94013E0FB681
:102F0000F8944091340A5091350A6091360A7091D4
:102F1000370A0FBE40938E0150938F01609390014A
:102F200070939101FC018F01C1912C2F2F7D89F0AD
:102F3000C53411F0C536B9F7F801108260E070E0D1
:102F40008091B4019091B5010E949E70F801C083F8
:102F500004C060E070E00E949E7020E030E04AE72C
:102F600054E40E94D86F0E940E6E60930401709327
:102F70000501809306019093070129C00E94283E15
:102F800088E517D9882331F0779A8091FD038E7FE9
:102F90008093FD0389E50DD9882331F0769A8091DD
:102FA000FD038D7F8093FD038AE503D9882331F0EB
:102FB000479A8091FD038B7F8093FD0385E4F9D8C8
:102FC000882329F0CF911F910F910C94780CCF9109
:102FD0001F910F9108954F925F926F927F928F92FF
:102FE0009F92AF92BF92CF92DF92EF92FF920F9398
:102FF0001F93CF93DF93CDB7DEB7A0970FB6F894AA
:10300000DEBF0FBECDBFC0900E01D0900F01E0908B
:103010001001F09011018091120190911301A09183
:103020001401B0911501898F9A8FAB8FBC8F40909E
:103030000504509006046090070470900804A301F2
:10304000920160910A0170910B0180910C019091A5
:103050000D010E94C16C6D877E878F87988B809051
:10306000090490900A04A0900B04B0900C04A501F0
:103070009401C701B6010E94C16C698B7A8B8B8B5E
:103080009C8BC0900D04D0900E04E0900F04F09043
:103090001004A7019601698D7A8D8B8D9C8D0E94FD
:1030A000C16C6D8B7E8B8F8B988F80911A01909164
:1030B0001B01A0911C01B0911D01898F9A8FAB8FCC
:1030C000BC8F80911E0190911F01A0912001B091B1
:1030D00021018D8F9E8FAF8FB8A3A30192016091C4
:1030E00016017091170180911801909119010E94A9
:1030F000C16C69837A838B839C83A5019401698D5C
:103100007A8D8B8D9C8D0E94C16C6D837E838F83A5
:103110009887A70196016D8D7E8D8F8D98A10E9455
:10312000C16C69877A878B879C870E94E50E87E848
:1031300093E00E94D70E83E53CD8182F8823B9F07E
:103140008091B4019091B501892B79F08CD897FDCD
:103150000BC089D86F3F71058105910509F02CF4EA
:1031600082D811E0611101C010E010930801809134
:1031700008010E94EB0E05E813E02DE733E0AE01F5
:103180004B5E5F4FBE016F5E7F4FCE010D960E947A
:103190000F1000E010E025E733E0AE01475F5F4F1E
:1031A000BE016B5F7F4FCE0101960E940F10A0966B
:1031B0000FB6F894DEBF0FBECDBFDF91CF911F9148
:1031C0000F91FF90EF90DF90CF90BF90AF909F90C6
:1031D0008F907F906F905F904F9008950C94283E51
:1031E0000E94585C0E94013E0E94672E60E070E0E1
:1031F00080E00E94875A68EE73E080E090E00E94D1
:10320000B51060E087E993E00C94662E0F931F934E
:10321000CF9383E50E94D910882309F451C00FB6DB
:10322000F8948091340A9091350AA091360AB091B1
:10323000370A0FBE80938E0190938F01A093900167
:10324000B09391018091B4019091B501009701F183
:10325000FC018F01C1912C2F2F7D89F0C53411F015
:10326000C536B9F7F801108260E070E08091B401D2
:103270009091B5010E949E70F801C08304C060E087
:1032800070E00E949E70B62FA72FF82FE92F04C080
:10329000B0E0A0E0F0E0E0E020E030E04AE754E415
:1032A0006B2F7A2F8F2F9E2F0E94D86F0E940E6E49
:1032B00060938A0170938B0180938C0190938D01B0
:1032C000CF911F910F91089581E08093810183E553
:1032D0000E94D910882331F08091B4019091B501FA
:1032E000892B31F483E50E94D910882389F0089551
:1032F0000E94331197FD0CC00E9433116F3F71057E
:103300008105910509F03CF40E943311611103C05D
:1033100080E00C949D2908950FB6F8944091340AEA
:103320005091350A6091360A7091370A0FBE40936A
:103330008E0150938F01609390017093910160E032
:103340000C94FA660C946D4F0E946F4F80E00C94C1
:1033500058500C946F4FCF9383E50E94D910C82F1B
:10336000882331F08091B4019091B501892B49F403
:1033700083E50E94D910C1E081E08C27CF910C94A5
:1033800058500E94331197FD0DC00E9433116F3FBA
:1033900071058105910509F07CF70E943311C1E0A8
:1033A0006111EACFC0E0E8CF282F80918901233056
:1033B00021F485FD0EC084FD0EC090E0A0E0B0E0D9
:1033C00004C0B695A795979587952A95D2F78170F1
:1033D000089581E0089580E008958F929F92AF92C2
:1033E000BF92CF92DF92EF92FF920F931F93CF93F2
:1033F00085E3E82E84E0F82E05E414E095E0C92E7C
:1034000094E0D92EC0E088E58C0F0E942711882314
:1034100001F10CD84B015C018C2FC6DF882351F0E1
:10342000F8012081318142815381C501B4010E949C
:10343000C16C09C0F6012081318142815381C501EF
:10344000B4010E94C06CF70160837183828393830F
:103450000AC0F80180819181A281B381F701808344
:103460009183A283B383CF5FF4E0EF0EF11C0C5F76
:103470001F4F84E0C80ED11CC33029F685E40E949A
:1034800027118823F9F00E9416126B017C0183E05A
:103490008BDF882371F020915104309152044091C8
:1034A000530450915404C701B6010E94C16C6B01D2
:1034B0007C01C0924104D0924204E0924304F09215
:1034C000440410C08091510490915204A09153047F
:1034D000B09154048093410490934204A093430418
:1034E000B093440486E40E9427118823C9F00E9407
:1034F000161220E030E0A9010E949D6F181684F496
:103500000E94161220E030E040E752E40E94A16DD4
:1035100060932401709325018093260190932701E5
:10352000CF911F910F91FF90EF90DF90CF90BF90C0
:10353000AF909F908F900895CF92DF92EF92FF927D
:103540000FB6F894C090340AD090350AE090360A4D
:10355000F090370A0FBEC60ED71EE81EF91E0FB632
:10356000F8948091340A9091350AA091360AB0916E
:10357000370A0FBE8C199D09AE09BF09B7FF03C0FA
:103580000E94940DECCFFF90EF90DF90CF900895C4
:10359000CF93DF93D82FC091870181E0809387017B
:1035A0008091B3018D3409F43DC0843509F48CC198
:1035B000873409F08DC12091B1013091B2012430DE
:1035C000310531F128F422303105D0F4C4D584C15D
:1035D0002A35310501F158F42531310509F47CC152
:1035E0002C31310509F074C10E94431175C12B358E
:1035F0003105A1F02C35310509F06AC14ED26CC1FC
:1036000081E02230310509F080E00E94FF2464C18E
:103610000E949D2661C1109289015EC18FE0809356
:1036200089015AC18091B1019091B201853791050C
:1036300009F421C108F076C08C35910509F417C151
:10364000B8F58D34910509F4F4C0C0F48F319105BB
:1036500009F4E9C040F48131910509F4E2C04297D0
:1036600009F403C135C18B34910509F4DFC08C34F2
:10367000910509F02DC10E94962C2EC1833591052C
:1036800009F4F0C058F48135910509F4E9C0823598
:10369000910509F01DC10E94572E1EC18435910568
:1036A00009F4E3C08535910509F012C1AFDD14C1FD
:1036B0008D36910509F4C3C0D0F48A36910509F41A
:1036C000C1C058F48836910509F4B6C08936910511
:1036D00009F0FEC00E940C2D05C18B36910509F43E
:1036E000B4C08C36910509F0F3C04ADBF5C08037D1
:1036F000910509F4AFC050F48E36910509F4A8C0C5
:103700008F36910509F0E4C047DBE6C082379105AA
:1037100009F4AFC008F4A2C08337910509F0D8C0FE
:103720004BD4DAC08C3D910509F4BBC0D8F5883C78
:10373000910509F4A8C0D0F48837910509F49FC019
:1037400050F48637910509F498C08737910509F040
:10375000BFC0F1D4C1C08937910509F492C08B393B
:10376000910509F0B5C00E946A2DB6C08C3C910548
:1037700009F48FC058F4893C910509F487C08B3C4B
:10378000910509F0A5C00E940313A6C08E3C9105C7
:1037900009F485C008F480C0833D910509F098C004
:1037A0001ADC9AC08A3921E0920709F455C0D8F48E
:1037B0008E3221E0920709F47AC050F48D3D9105D4
:1037C00009F472C08D32914009F082C0CDD884C016
:1037D0008F3221E0920709F46CC08039914009F0E2
:1037E00077C0FCDC79C0853F21E0920709F466C010
:1037F00058F48C3A21E0920709F45EC0843F91406E
:1038000009F066C09FDD68C0873F21E0920709F498
:1038100059C008F455C0873E934009F059C054DDA3
:103820005BC028DB59C00E94642C56C00E94942CB7
:1038300053C00E94972C50C00E94982C4DC00E94EB
:10384000C72C4AC00E94352D47C00E945C2D44C041
:1038500041D342C098DA40C09DDA3EC055D33CC047
:10386000BFDC3AC00E945E2E37C02ADB35C0CCD9FF
:1038700033C07FD331C061D42FC012D42DC0F4DA4D
:103880002BC0F5DA29C00E944D1226C00E94E61214
:1038900023C00E94961320C00E9420131DC0CBD2CB
:1038A0001BC00E94021418C00E944B1415C0E5D81A
:1038B00013C00E94B52D10C0AFD10EC045DD0CC0A5
:1038C00048DD0AC048DD08C08091B10125DD04C093
:1038D00082E991E00E947B28D11104C08DEF91E034
:1038E0000E947C29C0938701DF91CF910895CF92E8
:1038F000DF92EF92FF920F931F930FB6F894C09050
:10390000340AD090350AE090360AF090370A0FBE9C
:103910008091880181112FC080910301882359F182
:1039200080918701882339F140918301509184016E
:10393000609185017091860197018601041B150B2A
:10394000260B370B37FD2AC0833079F03CF48130E9
:1039500094F00E94E50E86ED93E00BC0843059F49C
:103960000E94E50E87EA93E004C00E94E50E8FEB0B
:1039700093E00E94D70E2091030130E0A8EEB3E05F
:103980000E94A76CC60ED71EE81EF91EC0928301C6
:10399000D0928401E0928501F09286011F910F91EF
:1039A000FF90EF90DF90CF9008950F931F93CF93E8
:1039B000DF93C091FE01D0E08091820180FF1EC0A4
:1039C0000E94E50E81E68C9F80018D9F100D1124D1
:1039D00000501E4FF80161918F01662329F08AE79C
:1039E00091E00E94B70CF6CF6DE08AE791E00E946B
:1039F000B70C6AE08AE791E00E94B70C21E62C9FA1
:103A0000C0012D9F900D112480509E4F0E941927B8
:103A100080E0DF91CF911F910F91BACDCF9384E5D4
:103A20000E9427118823A1F10E94331197FD2CC019
:103A30000E9433116F3F71058105910509F034F53E
:103A40000E943311C62F16162CF50E94E50E6DE468
:103A50008AE791E00E94B70C6091B1017091B201C8
:103A60004AE050E08AE791E00E945C106C2FCC0F96
:103A7000770B88EE93E00E9498106AE08AE791E065
:103A80000E94B70C8FEF07C0C0E004C0CFEF02C0A8
:103A900080E001C08C2FCF9108952F923F924F92DA
:103AA0005F926F927F928F929F92AF92BF92CF92CE
:103AB000DF92EF92FF920F931F93CF93DF938EE5E8
:103AC000882E81E0982E9DE1E92E94E0F92E25E4E0
:103AD000A22E24E0B22E35E0C32E34E0D32E10E027
:103AE00000E0F40181914F010E94D910882309F46C
:103AF0006FC08091B4019091B501009709F468C03E
:103B0000FC01EF017190272D2F7D89F025E47216BD
:103B100019F025E67212F5CF188260E070E080910E
:103B2000B4019091B5010E949E70788204C060E05B
:103B300070E00E949E701B01D82FC92F133051F0E6
:103B4000F60120813181428153810E94C06C1B01AA
:103B5000D82FC92FF5012081318142815381B101D4
:103B60008D2F9C2F0E94C06C2B013C012DEB37E365
:103B700046E855EB0E949D6F87FD0AC02DEB37E3A9
:103B800046E855E3C301B2010E949A6D181604F588
:103B9000133069F4C101AD2FBC2F80935104909371
:103BA0005204A0935304B093540401E011C0A30144
:103BB0009201F70160817181828193810E94C16CC1
:103BC000F7016083718382839383812F0E94CE35B6
:103BD0001F5FF4E0EF0EF11C24E0A20EB11C84E0A4
:103BE000C80ED11C143009F07CCF01110E94BC30EA
:103BF000DF91CF911F910F91FF90EF90DF90CF90C9
:103C0000BF90AF909F908F907F906F905F904F90FC
:103C10003F902F900C94A6302F923F924F925F923C
:103C20006F927F928F929F92AF92BF92CF92DF92CC
:103C3000EF92FF920F931F93CF93DF93CDB7DEB731
:103C40002E970FB6F894DEBF0FBECDBF87E00E945F
:103C5000B8368111B4C003E214E085E494E09E8795
:103C60008D87FE0131961F0180E2C82E84E0D82E98
:103C70007F01F8016591759185919491ED85FE859F
:103C800081909190A190B190FE87ED87A50194015C
:103C90000E94C06C2B013C0120E030E040EA51EC76
:103CA0000E949D6F87FD10C020E030E040EA51E4A3
:103CB000C301B2010E949A6D181634F0F7014082D8
:103CC0005182628273820DC0F60184911816B4F796
:103CD000B7FAB094B7F8B094F70180829182A282CB
:103CE000B382F70181909190A190B1907F0120E083
:103CF00030E040EA51ECC501B4010E949D6F87FDA0
:103D00000AC020E030E040EA51E4C501B4010E945D
:103D10009A6D1816F4F40E94E80E8BEF93E02E963D
:103D20000FB6F894DEBF0FBECDBFDF91CF911F91CC
:103D30000F91FF90EF90DF90CF90BF90AF909F904A
:103D40008F907F906F905F904F903F902F900C944A
:103D5000D70E0C5F1F4FFFEFCF1ADF0A84E00F3240
:103D6000180709F086CF10E0F1014191519161915E
:103D700071911F01812F0E94AD361F5F1330A1F793
:103D80000E94A63060E08FE294E02E960FB6F89481
:103D9000DEBF0FBECDBFDF91CF911F910F91FF907E
:103DA000EF90DF90CF90BF90AF909F908F907F90DB
:103DB0006F905F904F903F902F900C94662E2E96B0
:103DC0000FB6F894DEBF0FBECDBFDF91CF911F912C
:103DD0000F91FF90EF90DF90CF90BF90AF909F90AA
:103DE0008F907F906F905F904F903F902F900895AD
:103DF000CF93DF93C1E1D4E0488159816A817B810F
:103E000089E194E00E94FE0F4C815D816E817F818B
:103E100083E992E00E94FE0F488559856A857B857B
:103E200080E992E00E94FE0F6AE08AE791E0DF916C
:103E3000CF910C94B70C0F931F93CF93DF93C0E0F7
:103E400088E58C0F0E94D910882371F18091B4010C
:103E50009091B5010097F1F0FC018F01D1912D2FC8
:103E60002F7D89F0D53411F0D536B9F7F8011082DD
:103E700060E070E08091B4019091B5010E949E7065
:103E8000F801D08304C060E070E00E949E70362F7D
:103E9000272F04C030E020E080E090E0432F522F35
:103EA000BC018C2F0E94AD36CF5FC33049F68091A4
:103EB000AF0187FD09C08091B001837029F4DF91C3
:103EC000CF911F910F9194CFDF91CF911F910F91BF
:103ED0000C94A6308EE40E94D9108823A1F0809122
:103EE000B4019091B501009771F04AE050E060E0B4
:103EF00070E00E94F1716093840370938503809356
:103F0000860390938703089583E50E94D910882340
:103F100031F08091B4019091B501892B69F40E9430
:103F2000E50E609103018FE394E00E9452106AE075
:103F30008AE791E00C94B70C0E94331197FD17C0EB
:103F40000E9433116F3F71058105910509F01CF442
:103F50000E94331101C06FEF862F90E0CD971CF4C3
:103F60006093030108958CE380930301089560E05A
:103F7000F3CF0C94AB300F931F93CF938C01C62FCC
:103F800086E494E00E94D70EC8010E94D70E6AE32F
:103F90008AE791E00E94B70C6C2F70E0605D7F4F64
:103FA0008AE791E00E94B70C6AE08AE791E0CF913E
:103FB0001F910F910C94B70C80EC95E00E94D70EE6
:103FC00060E080EB95E0D7DF60E08BE995E0D3DF40
:103FD00060E084E995E0CFDF61E089E895E0CBDF40
:103FE00061E089E795E0C7DF60E080E795E0C3DF47
:103FF00061E086E695E0BFDF60E08CE595E0BBDF41
:1040000060E085E595E0B7DF60E08DE495E0B3DF43
:1040100060E08FE395E0AFDF60E081E395E0ABDF48
:1040200060E082E295E0A7DF60E084E195E0A3DF55
:1040300060E08EEF94E09FDF60E08DEE94E09BDF28
:1040400060E08EED94E097DF60E087ED94E093DF31
:1040500060E080ED94E08FDF60E08BEB94E08BDF3D
:1040600060E08DEA94E087DF61E08AE994E083DF35
:1040700060E08DE894E07FDF61E088E894E07BDF3A
:1040800060E08BE794E077DF60E087E694E073DF41
:1040900060E084E594E06FDF60E08BE494E06BCF58
:1040A0001F93CF93DF93C091B601D091B70194E0F5
:1040B00010E040E0915009F18881282F2B7F2134B6
:1040C00021F429812133C9F407C08035B1F48981F5
:1040D00080538A3040F011C0813421F0853419F4C6
:1040E00041E001C011E09E012E5F3F4FE9012F5FCB
:1040F0003F4F88818032D1F3DDCF41110E94E50E20
:10410000112321F083E996E00E94D70E699166237E
:1041100029F08AE791E00E94B70CF8CF6DE08AE7BA
:1041200091E00E94B70C6AE08AE791E0DF91CF91BD
:104130001F910C94B70C0C942C308091B601909187
:10414000B701009739F0FC012081222319F060E0CB
:104150000C94652E089580918101813019F43DD928
:104160000C94D13308952F923F924F925F926F92A9
:104170007F928F929F92AF92BF92CF92DF92EF92F7
:10418000FF920F931F93CF93DF93CDB7DEB7C45445
:10419000D1090FB6F894DEBF0FBECDBF9EA78DA785
:1041A00078AB6FA7142FDB012D913D914D915C9160
:1041B0001397298F3A8F4B8F5C8F50582D8F3E8FDE
:1041C0004F8F58A31496CD90DD90ED90FC901797EB
:1041D0002601370177FA709477F87094CA01B90113
:1041E0000E94D86F4B015C01A3019201C301B2018F
:1041F0000E94D86F9B01AC01C501B4010E94C16C43
:104200000E94457069A77AA78BA79CA78090450458
:1042100090904604A0904704B0904804298D3A8DB0
:104220004B8D5C8DC501B4010E94C16C69AB7AAB4A
:104230008BAB9CAB2091490430914A0440914B04D4
:1042400050914C04298F3A8F4B8F5C8FA7019601B8
:10425000698D7A8D8B8D9C8D0E94C16C6DAB7EAB10
:104260008FAB98AFADA5BEA58D919D910D90BC91E2
:10427000A02D8D8B9E8BAF8BB88F29A93AA94BA906
:104280005CA9BC01CD010E94C06C69A37AA38BA379
:104290009CA3EDA5FEA5C480D580E680F7802DA95E
:1042A0003EA94FA958ADC701B6010E94C06C6DA3CD
:1042B0007EA38FA398A72D893E894F89588DC5016C
:1042C000B4010E94C06C4B015C012DEB37E346E862
:1042D00055EB0E949D6F87FDE3C22DEB37E346E867
:1042E00055E3C501B4010E949A6D18160CF4D8C2AA
:1042F000A7019601698D7A8D8B8D9C8D0E94C06C73
:104300006B017C012DEB37E346E855EB0E949D6F76
:1043100087FDC6C22DEB37E346E855E3C701B6017A
:104320000E949A6D18160CF4BBC2112309F4ADC299
:1043300008E110E09BEDC92E9FE0D92E99ECE92E03
:1043400090ECF92E20914D0430914E0440914F0491
:104350005091500429A33AA34BA35CA3ADA5BEA5DD
:1043600018966D917D918D919C911B970E94C06CC8
:104370006D8B7E8B8F8B988F29A53AA54BA55CA55D
:10438000C701B6010E94D86F4B015C0120E030E00C
:10439000A9016D897E898F89988D0E949A6D8823E5
:1043A000D9F0A5019401C501B4010E94D86F4B0159
:1043B0005C012D893E894F89588DCA01B9010E943F
:1043C000D86F9B01AC01C501B4010E94C16C0E9471
:1043D00045704B015C010DC020E030E0A901C50132
:1043E000B4010E949D6F87FF04C0B7FAB094B7F87C
:1043F000B0942FE632E143E85AE3C501B4010E94CC
:104400009A6D87FDE2C2ADA5BEA51C962D913D918A
:104410004D915C911F9729A73AA74BA75CA72091C4
:1044200051043091520440915304509154042DA3EF
:104430003EA34FA358A72AE037ED43E25CE3609127
:1044400024017091250180912601909127010E94FD
:10445000D86F698F7A8F8B8F9C8F609122017091BA
:104460002301072E000C880B990B0E943C6E9B01C8
:10447000AC01698D7A8D8B8D9C8D0E94D86F698B74
:104480007A8B8B8B9C8BC501B4010E94776E0E9446
:104490000E6E1B016017710708F41801B10180E06E
:1044A00090E00E943A6E4B015C019B01AC01C70198
:1044B000B6010E94A16D698F7A8F8B8F9C8FA501A9
:1044C00094016D897E898F89988D0E94A16D2196B6
:1044D0006CAF7DAF8EAF9FAF21972DA13EA14FA1B5
:1044E00058A569A57AA58BA59CA50E94C06CA501BD
:1044F00094010E94A16D25966CAF7DAF8EAF9FAFEA
:104500002597298D3A8D4B8D5C8DCA01B9010E948A
:10451000D86F6B017C019B01AC01698D7A8D8B8D0D
:104520009C8D0E94D86F20E030E040EC50E40E9467
:10453000A16D9B01AC01698D7A8D8B8D9C8D0E9444
:10454000C06C69A77AA78BA79CA720E030E040E069
:104550005FE3C701B6010E94D86F9B01AC0160E028
:1045600070E080E89FE30E94C06C69AF7AAF8BAFC8
:104570009CAF89A19AA1ABA1BCA189879A87AB877F
:10458000BC872DA13EA14FA158A52D873E874F87FF
:10459000588B0FB6F8948091340A9091350AA09107
:1045A000360AB091370A0FBE9C01AD0128533F4F28
:1045B0004F4F5F4F2DA33EA34FA358A741E050E0BC
:1045C0005AA349A359E15D8B89A19AA1821593054C
:1045D00008F030C10E94C35F0FB6F8948091340A8E
:1045E0009091350AA091360AB091370A0FBE2DA1DD
:1045F0003EA14FA158A5821B930BA40BB50BB7FD91
:1046000017C00FB6F8948091340A9091350AA091A2
:10461000360AB091370A0FBE9C01AD0128533F4FB7
:104620004F4F5F4F2DA33EA34FA358A70E94940D59
:104630003D8931503D8B3323E9F1A301920169ADEE
:104640007AAD8BAD9CAD0E94D86F6B017C012D8D36
:104650003E8D4F8D58A169A57AA58BA59CA50E947A
:10466000D86FA70196010E94C16C6B017C012D8D52
:104670003E8D4F8D58A169AD7AAD8BAD9CAD0E943A
:10468000D86F4B015C01A301920169A57AA58BA5A6
:104690009CA50E94D86F9B01AC01C501B4010E948A
:1046A000C06C6D8F7E8F8F8F98A3C601D7012C01B0
:1046B0003D0166C049A15AA1BA0180E090E00E9484
:1046C0003A6E298D3A8D4B8D5C8D0E94D86F6B01AF
:1046D0007C010E949E6D2B013C01C701B6010E9426
:1046E0003B704B015C01AFA5B8A9CD90DD90ED907A
:1046F000FC901397F7FAF094F7F8F09414962D9134
:104700003D914D915C9117972D8B3E8B4F8B588F20
:10471000A7019601C301B2010E94D86F6D8F7E8FF1
:104720008F8F98A32D893E894F89588DC501B4017B
:104730000E94D86F9B01AC016D8D7E8D8F8D98A1ED
:104740000E94C16C6D8F7E8F8F8F98A3A7019601F9
:10475000C501B4010E94D86F6B017C012D893E898F
:104760004F89588DC301B2010E94D86F9B01AC01E3
:10477000C701B6010E94C06C2B013C01B9E1BD8BA1
:104780002D8D3E8D4F8D58A169A97AA98BA99CA921
:104790000E94C16C69837A838B839C83A3019201FD
:1047A0006DA97EA98FA998AD0E94C16C6D837E838F
:1047B0008F83988721962CAD3DAD4EAD5FAD21978F
:1047C00069857A858B859C850E94C16C69877A870B
:1047D0008B879C8725962CAD3DAD4EAD5FAD259763
:1047E0006D857E858F8598890E94C16C6D877E87D7
:1047F0008F87988BCE0101960E941933A12CB12C82
:104800006501E12C8E010F5E1F4F9E01235F3F4F1C
:10481000AE01475F5F4FBE016B5F7F4FCE010196D8
:104820000E94B44C882331F0E9A1FAA13196FAA391
:10483000E9A3CACE80E1EDA5FEA5DE0111960190A7
:104840000D928A95E1F7CE0101960E941933A12CB1
:10485000B12C6501E12C8E010F5E1F4F9E01235F7D
:104860003F4FAE01475F5F4FBE016B5F7F4FCE0191
:1048700001960E94B44C80E1FE013196A5E4B4E0BB
:1048800001900D928A95E1F7A0C008E110E08BED50
:10489000C82E8FE0D82E89ECE82E80E4F82E52CD79
:1048A0002D8D3E8D4F8D58A169A17AA18BA19CA120
:1048B0000E94D86F6B017C01A30192016DA17EA1C2
:1048C0008FA198A50E94D86F9B01AC01C701B601CA
:1048D0000E94C16C6B017C012D8D3E8D4F8D58A1C6
:1048E0006DA17EA18FA198A50E94D86F4B015C019C
:1048F000A301920169A17AA18BA19CA10E94D86F0A
:104900009B01AC01C501B4010E94C06CA7019601D6
:104910000E94346D6B017C0120E030E0A9010E940F
:104920009A6D882309F451C020E030E0A901C70145
:10493000B6010E949A6D082E000C990B8827990FDA
:10494000881F9927880F991F812B8130910569F065
:104950000297A9F42BED3FE049EC50E4C701B60102
:104960000E94C16C6B017C010AC02BED3FE049EC59
:1049700050E4C701B6010E94C06C6B017C0120E0CD
:1049800030E0A901C701B6010E949D6F87FF04C0F6
:10499000C701B601905802C0C701B60120E030E05F
:1049A00040EC51E40E94D86F2BED3FE049EC50E41D
:1049B0000E94A16D0E94876D0E940E6E8B01672B75
:1049C00009F0C0CC01E010E0BDCCCC5BDF4F0FB6EE
:1049D000F894DEBF0FBECDBFDF91CF911F910F9135
:1049E000FF90EF90DF90CF90BF90AF909F908F900F
:1049F0007F906F905F904F903F902F9008952F92EF
:104A00003F924F925F926F927F928F929F92AF925E
:104A1000BF92CF92DF92EF92FF920F931F93CF93AB
:104A2000DF93CDB7DEB765970FB6F894DEBF0FBE44
:104A3000CDBF90918101913009F066C18D8B0E94AC
:104A4000ED1919821A821B821C821D821E821F820E
:104A5000188682E50E942711882309F445C00E9428
:104A600016126D877E878F87988B20E030E0A90132
:104A70000E949A6D882309F44DC0C0904504D090DF
:104A80004604E0904704F0904804809049049090D8
:104A90004A04A0904B04B0904C04409035045090D0
:104AA00036046090370470903804809139049091F6
:104AB0003A04A0913B04B0913C0489879A87AB8764
:104AC000BC87A7019601C301B2010E949A6D8111B2
:104AD00038C0A501940169857A858B859C850E94E3
:104AE0009A6D8823B9F02DC089E40E94271188238C
:104AF00031F00E94161269837A838B839C838AE447
:104B00000E942711882331F00E9416126D837E8344
:104B10008F83988720E030E0A90169817A818B81B9
:104B20009C810E949A6D8111CDC020E030E0A901E6
:104B30006D817E818F8198850E949A6D8111C2C09E
:104B4000DDC09D89292E312C01E010E020E030E00D
:104B5000A9016D857E858F8598890E949A6D87FD54
:104B600002C000E010E02016310649F480E090E039
:104B7000A0E8BFE3898B9A8BAB8BBC8B08C080E02D
:104B800090E0A0E8BFEB898B9A8BAB8BBC8BA70125
:104B90009601C301B2010E94C06C20E030E040E009
:104BA0005FE30E94D86F6B017C01A50194016985C8
:104BB0007A858B859C850E94C06C20E030E040E0C7
:104BC0005FE30E94D86F69877A878B879C87A701EC
:104BD0009601C701B6010E94D86F4B015C0129857F
:104BE0003A854B855C85CA01B9010E94D86F9B014B
:104BF000AC01C501B4010E94C16C0E9445704B011B
:104C00005C019B01AC016D857E858F8598890E9432
:104C1000C06C2B013C012D853E854F855889C5010F
:104C2000B4010E94C16C9B01AC01C301B2010E949E
:104C3000D86F2B013C0120E030E0A9010E949D6F5C
:104C400087FD07C0C301B2010E9445702B013C01E2
:104C500003C0412C512C320169857A858B859C8556
:104C60009058A50194010E94A16D29893A894B8928
:104C70005C890E94D86FA30192010E94D86FA7019E
:104C800096010E94C16C69837A838B839C83A50102
:104C90009401C701B6010E94A16D29893A894B8907
:104CA0005C890E94D86FA30192010E94D86F298568
:104CB0003A854B855C850E94C16C6D837E838F83B2
:104CC000988728CF20E04D89BE016F5F7F4F85E335
:104CD00094E049DA0FB6F8948091340A9091350A3D
:104CE000A091360AB091370A0FBE80938E0190933F
:104CF0008F01A0939001B093910106C00E94E80E2D
:104D000086E996E00E94D70E65960FB6F894DEBF4E
:104D10000FBECDBFDF91CF911F910F91FF90EF900C
:104D2000DF90CF90BF90AF909F908F907F906F90CB
:104D30005F904F903F902F900895CF92DF92EF9227
:104D4000FF92CF9380E50E942711882379F080910C
:104D5000B4019091B501009749F04AE050E060E05D
:104D600070E00E941C736B017C0103C0C12CD12C2C
:104D7000760183E50E9427118823C1F18091B40157
:104D80009091B501009701F1FC017F01C1912C2F99
:104D90002F7D89F0C53411F0C536B9F7F7011082BF
:104DA00060E070E08091B4019091B5010E949E7026
:104DB000F701C08304C060E070E00E949E70B62FCF
:104DC000A72FF82FE92F04C0B0E0A0E0F0E0E0E06A
:104DD00020E030E04AE754E46B2F7A2F8F2F9E2F8C
:104DE0000E94D86F0E940E6E6B017C010E94283ECB
:104DF00060E08CEA96E06AD7C701B601CF91FF90D8
:104E0000EF90DF90CF900C949C1A1092B701109203
:104E1000B6018FE38093B3011092B2011092B101F9
:104E20001092AD011092AE011092AF011092B0013C
:104E300008957F928F929F92AF92BF92CF92DF920E
:104E4000EF92FF920F931F93CF93DF93182FC92FE9
:104E5000DCDF812F9C2FFC01208101962032D9F3C9
:104E60002E3489F4818190ED980F9A3008F419C19D
:104E70008D3209F416C18B3231F413C1FD01119644
:104E800080818032D9F3F093B901E093B8018F01AA
:104E90000F5F1F4F70806AE270E0C8010E94697462
:104EA000009731F0FC01319780818032E1F311826B
:104EB0004DE4842E781441F034E5932E791421F0DA
:104EC00027E4A22E7A1009C1F80180810F5F1F4FDD
:104ED0008032D1F380538A3008F0FFC07092B30162
:104EE0001092B2011092B1012AE031968091B10185
:104EF0009091B201289FA001299F500D1124405389
:104F00005109DF0111978C91480F511D87FD5A956A
:104F10005093B2014093B101808180538A3028F3CD
:104F2000DF0131968C918032D9F39DE4B92E7B104C
:104F30001AC04E31510591F038F44731510571F0E6
:104F40004C31510581F40AC04537510560F04737AF
:104F5000510520F0403A83E0580729F4B093B70197
:104F6000A093B601BAC01092B7011092B601609139
:104F7000B801C12CD12C7601C394FD0131962C913E
:104F8000222309F4AAC02132A9F4CDE47C1212C074
:104F90004032510579F4F093B701E093B60163E232
:104FA00070E0CF010E946974009709F496C0FC017B
:104FB000108293C021542A3108F04BC0DF01FD015B
:104FC000808111968032D9F390ED980F9A30B0F02D
:104FD0008E3211F481810EC08D3219F08B3209F0BE
:104FE0006CC0818190ED980F9A3040F08E3209F0BC
:104FF00064C0828180538A3008F05FC0CF01A22F45
:10500000B0E04601570104C0880C991CAA1CBB1CC7
:105010002A95D2F7950184018090AD019090AE0160
:10502000A090AF01B090B001082919292A293B2985
:105030000093AD011093AE012093AF013093B00106
:10504000009711F0861B01C080E0AD56BE4F8C93D7
:105050000AC08091B6019091B701892B21F4B093D9
:10506000B701A093B601808181548A3138F4DF0101
:1050700084CF90ED980F9A3040F4F901DF01EF01F1
:1050800089919E018111F5CF78CF93ED980F9230E1
:10509000A0F38B3291F3DF0131968C918032D9F3FA
:1050A0006CCFDF0112969D012F5F3F4F8C91805393
:1050B0008A3008F0E3CED901F6CF8091B601909105
:1050C000B701009739F4DF011197B093B701A093AE
:1050D000B60195CF80E090E092CFDF91CF911F9104
:1050E0000F91FF90EF90DF90CF90BF90AF909F9087
:1050F0008F907F9008950E94E50E6091B8017091A5
:10510000B90188EB96E00E94F30E85EB96E00C94D3
:10511000D70EFC018281DF0191E6899FA00DB11DB0
:105120001124AD59BF4F6C938F5F843010F482838C
:1051300001C0128280818F5F808308951F93CF9377
:10514000DF93FB0120812B33B1F0FC01208124305F
:1051500090F4142FEC0182819F0141E6849F200D81
:10516000311D1124C90103960E947474612FCE0170
:10517000D0DF81E001C080E0DF91CF911F910895E1
:105180008F929F92BF92CF92DF92EF92FF920F93F6
:105190001F93CF93DF93CDB7DEB7CDB6DEB6609168
:1051A000FB017091FC016115710581F0E12CF12C7E
:1051B000FB01EE0DFF1DB49087010F5F1F4FBB2059
:1051C00039F08AE0B81621F07801F2CF80E02CC0E7
:1051D0008DB79EB7801B910B0FB6F8949EBF0FBE84
:1051E0008DBF01964C01A7010E942E74F401EE0DB3
:1051F000FF1D1082BB20A9F08091FB019091FC0162
:10520000080F191F1093FC010093FB01EF2839F0E0
:10521000C4010FDE80E00E94C81A81E005C081E071
:1052200003C000E010E0EECF0FB6F894DEBE0FBE74
:10523000CDBEDF91CF911F910F91FF90EF90DF9046
:10524000CF90BF909F908F9008951F93CF93DF933F
:105250008091BB01882359F0EBEBF1E0EF01CB5BD0
:10526000D1401191112329F01A30C1F702C080E01A
:1052700022C0209751F0FE01E554FE4F10828BEBC7
:1052800091E0D7DD80E00E94C81A81E0111101C0D1
:1052900080E0C80F80E0EC2FE80FF0E0E554FE4F0F
:1052A0009081E82FF0E0E554FE4F9083992311F0B0
:1052B0008F5FF1CF81E0DF91CF911F91089560DF83
:1052C000811119C0C2DF811116C08091FD018823B0
:1052D00091F00E94D51C8091FE018F5F843018F4FC
:1052E0008093FE0102C01092FE018091FD01815069
:1052F0008093FD0108950895FC012181F1E62F9F1F
:10530000800D911D1124FC01ED59FF4F8081811109
:1053100009C084EE97E00E94D70E6AE08AE791E028
:105320000C94B70C0895DC018D919C91DC01ED91FA
:10533000FC910680F781E02D0994CF92DF92EF92E5
:10534000FF92CF93C82F8AE791E0EDDF8BED97E0D6
:105350000E94D70E87E6C802F0011124EC57FC4FDB
:10536000C080D180E280F3808FEFC81AD80AE80AA3
:10537000F80AF7FE0DC0F094E094D094C094C11CDC
:10538000D11CE11CF11C6DE28AE791E00E94B70C90
:105390002AE0B701A6018AE791E00E94060F6DE0BE
:1053A0008AE791E00E94B70C6AE08AE791E0CF912A
:1053B000FF90EF90DF90CF900C94B70CEF92FF929C
:1053C0000F931F93CF937C01C62F0E94E80E0C2FE2
:1053D0000C2E000C110B27E6C202F0011124EC5731
:1053E000FC4F4081518162817381C7010E94A410EA
:1053F0006AE08AE791E00E94B70C80917A0190916F
:105400007B01DC01ED91FC910284F385E02D09958F
:10541000019699F78C2F91DF87E6809FF001819F9D
:10542000F00D1124EC57FC4F15821482CF911F917F
:105430000F91FF90EF9008958F929F92AF92BF923D
:10544000CF92DF92EF92FF920F931F93CF93DF9350
:1054500001E08091FD0190E004970CF042C1809141
:105460007A0190917B01DC01ED91FC910084F18542
:10547000E02D0995181619060CF033C180917A01B8
:1054800090917B01DC01ED91FC910284F385E02D8C
:105490000995AC0197FF0AC00E94E80E83EC97E0E3
:1054A0000E94D70E8AE791E03EDFD3CF282F8A30C3
:1054B00019F08D3009F0D8C01092EA03809188036A
:1054C00090918903FC01EC57FC4F1682892B19F44B
:1054D0000E94C35FBECF1092890310928803CAE86E
:1054E000D3E0FE018191803211F4EF01FACF8E34C6
:1054F00009F06BC0209709F468C06EEB77E0CE012D
:105500000E944F745C01892B41F06EE470E0CE0183
:1055100004960E946974009709F4CE014AE050E0B5
:1055200060E070E001960E94F1716B017C01809156
:10553000840390918503A0918603B091870301961F
:10554000A11DB11DC816D906EA06FB0639F0AB2825
:1055500029F460E08BE897E031DF7BCF6AE270E00E
:10556000CE010E947B749C01009711F1982F9C1B27
:1055700010E0992339F09150FE01E90FF11D80816F
:105580001827F7CF4AE050E060E070E0C9010196CB
:105590000E94F171812E912CA12CB12C68157905F6
:1055A0008A059B0551F060E08CE697E007DF51CF5C
:1055B00060E082E497E002DF4CCFC0928403D09297
:1055C0008503E0928603F092870380918101813008
:1055D000D9F067E470E0CE010E9469740097A1F0F1
:1055E0004AE050E060E070E001960E94F1716430A2
:1055F00071058105910540F48BEC96E00E94D70E71
:1056000060E087EE97E062D388818D3431F58B813D
:10561000823371F0883319F08033F9F417C08A812E
:105620008033D9F489818133C1F41092000115C00F
:105630008A81813391F48981813379F441E060E09A
:1056400070E088E592E00E94AE0C07C08981843347
:1056500021F48A81813309F41AD640E06AE873E0C4
:105660008DEF91E06BDDF5CE9091EA03913009F476
:10567000F0CE943020F094509093EA030DC04C3556
:1056800031F49C5F9093EA039430C9F4E2CE4B333B
:1056900019F40093EA03DDCE283089F48091880361
:1056A00090918903009709F4D4CE019790938903D0
:1056B00080938803FC01EC57FC4F1682CACE2091E0
:1056C000880330918903C9010196909389038093DF
:1056D0008803F901EC57FC4F46838F359105CCF6D2
:1056E000B8CEDF91CF911F910F91FF90EF90DF9097
:1056F000CF90BF90AF909F908F9008958091FD01C3
:1057000090E004970CF498CE08952F923F924F9218
:105710005F926F927F928F929F92AF92BF92CF9241
:10572000DF92EF92FF920F931F93CF93DF93D62FC9
:10573000C72FFC0180809180A280B380C501B40195
:1057400020E831E541E050E00E944E6CC9016DE671
:1057500071E00E943A6C6B017C01C501B40120E14B
:105760003EE040E050E00E944E6CCA01B90128E1E1
:1057700030E040E050E00E944E6C362E272E062F7F
:10578000172F8CE3482E512C612C712CC501B401CC
:10579000A30192010E944E6CB62EA72ECA01B90138
:1057A000A30192010E944E6CCB01C114D104D9F027
:1057B000AF92BF927F936F932F923F92FF92EF929F
:1057C000DF92CF9286E298E09F938F93CF93DF93FF
:1057D0000E9486748DB79EB70E960FB6F8949EBF42
:1057E0000FBE8DBF5CC0E114F104C9F0AF92BF924F
:1057F0007F936F932F923F92FF92EF9286E198E012
:105800009F938F93CF93DF930E948674EDB7FEB77B
:105810003C960FB6F894FEBF0FBEEDBF40C0012B03
:10582000B9F0AF92BF927F936F932F923F928AE02D
:1058300098E09F938F93CF93DF930E9486748DB7E8
:105840009EB70A960FB6F8949EBF0FBE8DBF27C0B5
:10585000892BA9F0AF92BF927F936F9382E098E07B
:105860009F938F93CF93DF930E948674EDB7FEB71B
:1058700038960FB6F894FEBF0FBEEDBF10C0AF92C2
:10588000BF928EEF97E09F938F93CF93DF930E9409
:1058900086740F900F900F900F900F900F908D2F98
:1058A0009C2FDF91CF911F910F91FF90EF90DF9090
:1058B000CF90BF90AF909F908F907F906F905F90B0
:1058C0004F903F902F900895CF93DF93CDB7DEB7E1
:1058D0006A970FB6F894DEBF0FBECDBF4FD26F8B65
:1058E000788F898F9A8FBE016F5F7F4FCE01479669
:1058F0000CDF60E0CE010196E8D10E94E50EBE010A
:105900006F5F7F4F81EF97E00E94F30E6AE08AE7B6
:1059100091E00E94B70C6A960FB6F894DEBF0FBEF6
:10592000CDBFDF91CF9108950C948D0CEEC1CFC106
:10593000CF93DF938091820183FD26C00E940E1DCC
:1059400087FD22C083E50E9427118823C9F00E94A9
:105950001612C0914B01D0914C012F970E94096EF5
:105960009E016C177D070CF49B013093220A209353
:10597000210A80E00E94195C61E080E00E94785C6E
:10598000DF91CF910C94B04EDF91CF9108950F939A
:105990001F93CF93DF938091820183FD38C00E94D3
:1059A0000E1D182F87FD33C083E50E942711082F95
:1059B000811112C082E50E94271181110DC0C0E043
:1059C0000E94B04ECC2319F1602F812FDF91CF912F
:1059D0001F910F910C9462650E941612C0914B01A9
:1059E000D0914C012F970E94096E9E016C177D0784
:1059F0000CF49B013093220A2093210A80E00E943C
:105A0000195C61E081E00E94785CC1E0D9CFDF9150
:105A1000CF911F910F910895CF930E940E1DC82F13
:105A200087FD0DC08AE398E00E94D70E8C2F0E945C
:105A3000CF5C6AE08AE791E0CF910C94B70CCF91EC
:105A400008950E94331197FD0CC00E9433116F3FDF
:105A500071058105910509F034F40E943311862FF8
:105A6000089580E008958FEF0895CF93DF9380E548
:105A70000E942711811108C081E40E94D910811170
:105A800009C0CFEFD0E00AC0DCDF8823A9F3DF91A3
:105A9000CF9108956091180AC62FD0E083E50E9447
:105AA0002711882319F00E943311EB01BE0180E019
:105AB000DF91CF910C94875A80E50E9427118111C4
:105AC00005C060E070E080E00C94875ABADF88235C
:105AD000C1F30895CF92DF92EF92FF9283E50E9487
