:100000000C94830C0C94B40C0C94B40C0C94B40CA1
:100010000C94B40C0C94B40C0C94B40C0C94B40C60
:100020000C94B40C0C94B40C0C94B40C0C94B40C50
:100030000C94B40C0C94B40C0C94B40C0C94B40C40
:100040000C94B40C0C9488250C94B40C0C94B40C43
:100050000C94B40C0C94B40C0C94AE4F0C94624EF3
:100060000C94B40C0C94CD4D0C94C34D0C94B40C66
:100070000C94B40C0C94B40C0C94B40C0C94B40C00
:100080000C94B40C0C94B40C0C94B40C0C94B40CF0
:100090000C94B40C0C94B40C0C94B40C0C94B40CE0
:1000A0000C94B40C0C94B40C0C94B40C0C94B40CD0
:1000B0000C94B40C0C94B40C0C94B40C0C94B40CC0
:1000C0000C94B40C0C94B40C0C94B40C0C94B40CB0
:1000D0000C94B40C0C94B40C0C94B40C0C94B40CA0
:1000E0000C94B40C2F4B344B394B434B4D4BC64BFC
:1000F000574B5F4B674B714B7B4B854B944B9E4BE8
:10010000C64BA84BB24BBC4B4F5B525B415B455B54
:10011000495B895B565B5A5B605B645B685B6E5BEB
:10012000725B765B895B7C5B805B845B084AD73B58
:100130003BCE016E84BCBFFDC12F3D6C74319ABDB6
:1001400056833DDA3D00C77F11BED9E4BB4C3E91DA
:100150006BAAAABE000000803F05A84CCDB2D44EC9
:10016000B93836A9020C50B9918688083CA6AAAACB
:100170002ABE000000803F000C94944B0C94415B1D
:100180000C94895B0C94495B0C94714B0C94645BEC
:100190000C94565B0C94765B0C94805B0C94C05F63
:1001A0000C94845B0C94344B0C94685B0C947B4BE8
:1001B0000C94394B0C94725B0C947C5B0C94434B09
:1001C0000C94574B0C94455B0C944F5B0C949E4BDA
:1001D0000C946E5B0C94A84B0C94525B0C94854B66
:1001E0000C94605B0C942F4B0C94B24B0C944D4BC5
:1001F0000C945F4B0C945A5B0C94674B0C94BC4B67
:100200000C94C64B4E414E494E495459494E46CD29
:10021000CCCC3D0AD7233C17B7D13877CC2B3295BD
:1002200095E6241FB14F0A000020410000C842009B
:10023000401C4620BCBE4CCA1B0E5AAEC59D744322
:100240004F4D4D554E49434154494F4E004452592C
:1002500052554E004552524F525300494E464F00A0
:100260004543484F006F6B00496E76616C696420AE
:1002700065787472756465720A00486F6D65202533
:10028000732573257320466972737400546F6F2051
:100290006661722066726F6D207265666572656E4A
:1002A000636520706F696E740A00FFFFFF00000035
:1002B00000000000000000000023646566696E65B0
:1002C0002044454641554C545F004B6420004B6927
:1002D00020004B702000504944204175746F7475A4
:1002E0006E652066696E6973686564212050757457
:1002F00020746865206C617374204B702C204B69EE
:1003000020616E64204B6420636F6E7374616E7441
:10031000732066726F6D2062656C6F7720696E74F2
:100320006F20436F6E66696775726174696F6E2EB8
:10033000680A00504944204175746F74756E6520D9
:100340006661696C6564212074696D656F75740AF6
:1003500000544845524D414C2052554E4157415949
:1003600000546865726D616C2052756E61776179B9
:100370000048656174696E67204661696C65640058
:1003800048656174696E67206661696C65640050D8
:100390004944204175746F74756E65206661696C9F
:1003A0006564212054656D70657261747572652095
:1003B000746F6F20686967680A00204B643A2000F8
:1003C000204B693A2000204B703A200020436C619A
:1003D0007373696320504944200A002054753A2001
:1003E00000204B753A2000206D61783A2000206D86
:1003F000696E3A200020643A200020626961733AF5
:100400002000504944204175746F74756E652073E7
:10041000746172740A00504944204175746F747598
:100420006E65206661696C6564212054656D706538
:1004300072617475726520746F6F20686967680AED
:1004400000504944204175746F74756E6520666173
:10045000696C65642120426164206865617465721D
:100460002069640A0064697300656E0043290A000C
:1004700061626C656420286D696E2074656D702002
:1004800000436F6C642065787472756465732061D5
:100490007265200020643A0020693A0020703A001A
:1004A000496E76616C6964206578747275646572F2
:1004B0000A0020466C6F773A200046523A004F46B9
:1004C00046004F4E0020580020204D61783A200011
:1004D000200020204D696E3A2000536F667420651D
:1004E0006E6473746F70733A2000205A00205900B4
:1004F0004D3230362058003F4A206F7574206F66A9
:100500002072616E67652028302E303120746F2094
:10051000302E33290A0020540020520041636365C5
:100520006C65726174696F6E3A2050002F2F004D18
:100530004541545041434B00434F4F4C45525F544B
:10054000454D5045524154555245004348414D4256
:1005500045525F54454D5045524154555245004215
:100560004142595354455050494E4700415243531C
:10057000004D4F54494F4E5F4D4F44455300544832
:1005800045524D414C5F50524F54454354494F4E94
:10059000004C4F4E475F46494C454E414D4500414A
:1005A00055544F5245504F52545F53445F5354413A
:1005B0005455530052455045415400534443415211
:1005C000440050524F4D50545F535550504F525469
:1005D00000454D455247454E43595F5041525345A2
:1005E0005200434153455F4C494748545F4252498A
:1005F0004748544E45535300544F47474C455F4C72
:10060000494748545300534F4654574152455F5051
:100610004F574552004255494C445F50455243455F
:100620004E54004C4556454C494E475F4441544159
:10063000005A5F50524F42450052554E4F5554009C
:100640004155544F4C4556454C005052494E545F0D
:100650004A4F420050524F47524553530041555460
:100660004F5245504F52545F54454D5000564F4CD9
:10067000554D455452494300454550524F4D004257
:10068000494E4152595F46494C455F5452414E5381
:100690004645520053455249414C5F584F4E5F58B2
:1006A0004F4646004649524D574152455F4E414DD7
:1006B000453A4D61726C696E206275676669782D86
:1006C000322E302E7820284D617220203920323091
:1006D00032312031373A34353A30362920534F55AC
:1006E0005243455F434F44455F55524C3A676974E6
:1006F0006875622E636F6D2F4D61726C696E46690D
:10070000726D776172652F4D61726C696E20505207
:100710004F544F434F4C5F56455253494F4E3A3119
:100720002E30204D414348494E455F545950453A7B
:100730003344205072696E74657220455854525586
:100740004445525F434F554E543A31205555494424
:100750003A63656465326132662D343161322D341D
:100760003734382D396231322D6335356336326690
:1007700033363766660A004D3131332053004D3130
:1007800031322053687574646F776E006F6666004F
:1007900060025B0254024D023F0244454255473A13
:1007A000006F6B0020573A002569730025696D20A2
:1007B000256973002569682025696D202569730006
:1007C000256964202569682025696D2025697300E5
:1007D00025697920256964202569682025696D20AF
:1007E000256973005072696E742074696D653A20D2
:1007F0000047322F47332062616420706172616D5F
:1008000065746572730A0020746F6F206C6F6E6779
:1008100020657874727573696F6E20707265766585
:100820006E7465640A0020636F6C6420657874726E
:100830007573696F6E2070726576656E7465640A93
:100840000000004843000048430000484300000007
:100850000000000000000000000000964300009629
:10086000430000A0400000C8410000A0420000A0DA
:10087000420000C8430000FA43B80B0000B80B0068
:100880000064000000102700003B200020440020EE
:10089000490020204D33303120500050494420730E
:1008A000657474696E67733A0020204D32303620CB
:1008B0005800486F6D65206F66667365743A002056
:1008C0004A0020530020204D323035204200416440
:1008D00076616E6365643A20423C6D696E5F736554
:1008E000676D656E745F74696D655F75733E2053E7
:1008F0003C6D696E5F66656564726174653E205427
:100900003C6D696E5F74726176656C5F6665656487
:10091000726174653E204A3C6A756E635F646576F9
:100920003E0020520020204D3230342050004163E0
:1009300063656C65726174696F6E2028756E697489
:10094000732F7332293A20503C7072696E745F6164
:100950006363656C3E20523C726574726163745FC0
:10096000616363656C3E20543C74726176656C5FB4
:10097000616363656C3E0020204D323031205800A9
:100980004D6178696D756D20416363656C65726159
:1009900074696F6E2028756E6974732F7332293AEB
:1009A0000020450020204D3230332058004D617822
:1009B000696D756D20666565647261746573202864
:1009C000756E6974732F73293A00537465707320C0
:1009D00070657220756E69743A0020440020204DC5
:1009E0003230302053002044697361626C65640AC0
:1009F0000046696C616D656E742073657474696E10
:100A000067733A0020286D6D29002020473231207D
:100A10002020203B20556E69747320696E206D6D17
:100A20000024F4D43050C38E20C2A24017828B70B1
:100A300011127A910D816CD90AA861E108C7586634
:100A400007615143061E4B5D05C145A7041A4111BC
:100A500004093D9803713931034036DB0265339157
:100A600002D4305402802E1D02632CEE01752AC57B
:100A700001B028A001102781018F2564012B244B90
:100A800001E0223401AC211F018D200D01801FFCEB
:100A900000841EED00971DDF00B81CD200E61BC6C7
:100AA00000201BBC00641AB200B219A8000A19A0E9
:100AB000006A189900D117910040178B00B5168471
:100AC0000031167E00B31579003A157300C7146F14
:100AD0000058146A00EE1366008813630025135E45
:100AE00000C7125B006C12570015125400C111515F
:100AF0000070114F0021114B00D61049008D104796
:100B0000004610440002104200C00F4000800F3E1B
:100B100000420F3C00060F3B00CB0E3800930E370F
:100B2000005C0E3500270E3400F30D3200C10D318C
:100B300000900D3000600D2E00320D2D00050D2CA3
:100B400000D90C2B00AE0C2900850C29005C0C2769
:100B500000350C27000E0C2600E80B2400C40B24E3
:100B600000A00B23007D0B23005A0B2100390B2121
:100B700000180B2000F80A1F00D90A1E00BB0A1E2D
:100B8000009D0A1D00800A1D00630A1C00470A1B05
:100B9000002C0A1B00110A1A00F7091A00DD0919B6
:100BA00000C4091900AB091900920917007B091844
:100BB00000630917004C09160036091600200916B3
:100BC000000A091500F5081500E0081400CC081407
:100BD00000B8081400A4081400900813007D08123F
:100BE000006B081300580812004608120034081160
:100BF00000230811001208110001081100F007106D
:100C000000E0071000D0071000C0071000B0070F69
:100C100000A107100091070E0083070F0074070F53
:100C20000065070E0057070E0049070E003B070D31
:100C3000002E070E0020070D0013070D0006070DFC
:100C400000F9060C00ED060D00E0060C00D4060CC1
:100C500000C8060C00BC060C00B0060C00A4060B75
:100C60000099060C008D060B0082060B0077060B20
:100C7000006C060B0061060A0057060B004C060AC2
:100C80000042060A0038060A002E060A0024060A58
:100C9000001A060A001006090007060A00FD0509E9
:100CA00000F4050900EB050900E2050900D9050972
:100CB00000D0050900C7050900BE050900B50508F3
:100CC00000AD050800A50509009C0508009405086D
:100CD000008C050800840508007C050800740508E0
:100CE000006C050700650508005D0507005605084E
:100CF000004E0507004705070040050800380507B6
:100D000000310507002A050700230507001C05061A
:100D100000160507000F0507000805060002050775
:100D200000FB040600F5040700EE040600E80406D4
:100D300000E2040700DB040600D5040600CF040629
:100D400000C9040600C3040600BD040600B704067B
:100D500000B1040500AC040600A6040600A00405CA
:100D6000009B04060095040500900406008A040513
:100D70000085040500800406007A0405007504055A
:100D800000700405006B040500660405006104059D
:100D9000005C04050057040500520405004D0405DD
:100DA0000048040500430405003E0404003A04051D
:100DB0000035040500300404002C04050027040459
:100DC00000230405001E0404001A04040016040590
:100DD00000110404000D04040009040500040404C7
:100DE0000000040400FC030400F8030400F40304FE
:100DF00000F0030400EC030400E8030400E403042F
:100E000000E0030400DC030400D8030400D403045E
:100E100000D0030400CC030400C8030300C503038F
:100E20000024F404D9201BC40C5C0E9804C4095F90
:100E30000265077101F405F900FB04B3004804875B
:100E400000C10369005803550003034500BE023A80
:100E5000008402310053022A0029022500040220E6
:100E600000E4011C00C8011900AF0117009801142B
:100E70000084011300710110006101100051010E86
:100E80000043010D0036010B002B010B0020010B6C
:100E900000150109000C01090003010800FB00080E
:100EA00000F3000800EB000700E4000600DE000687
:100EB00000D8000600D2000600CC000500C70005DF
:100EC00000C2000500BD000400B9000400B5000424
:100ED00000B1000400AD000400A9000400A5000357
:100EE00000A20003009F0004009B00030098000381
:100EF000009500020093000300900003008D0002A3
:100F0000008B0003008800020086000200840003BA
:100F100000810002007F0002007D0002007B0002D1
:100F200000790002007700010076000200740002E0
:100F30000072000100710002006F0002006D0001EC
:100F4000006C0002006A00010069000200670001F5
:100F500000660001006500010064000200620001FB
:100F60000061000100600001005F0002005D0001FF
:100F7000005C0001005B0001005A00010059000103
:100F80000058000100570001005600010055000103
:100F90000054000100530000005300010052000102
:100FA0000051000100500001004F0001004E000000
:100FB000004E0001004D0001004C0001004B0000FC
:100FC000004B0001004A00010049000100480000F8
:100FD00000480001004700010046000000460001F3
:100FE00000450000004500010044000100430000EE
:100FF00000430001004200000042000100410000E7
:101000000041000100400001003F0000003F0001DE
:10101000003E0000003E0001003D0000003D0001D8
:10102000003C0000003C0000003C0001003B0000D0
:10103000003B0001003A0000003A000100390000C6
:1010400000390001003800000038000000380001BD
:1010500000370000003700010036000000360000B5
:1010600000360001003500000035000000350001A9
:1010700000340000003400000034000100330000A0
:101080000033000000330001003200000032000095
:101090000032000100310000003100000031000189
:1010A000003000000030000000300001002F000080
:1010B000002F0000002F0000002F0001002E000074
:1010C000002E0000002E0001002D0000002D000069
:1010D000002D0000002D0001002C0000002C00005D
:1010E000002C0000002C0001002B0000002B000051
:1010F000002B0000002B0001002A0000002A000045
:10110000002A0000002A0001002900000029000038
:10111000002900000029000000290001002800002B
:10112000002800000028000000280000002800011E
:101130000027000000270000002700000027000013
:101140000027000100260000002600000026000005
:1011500000260000002600010025000000250000F8
:1011600000250000002500000025000000250001EA
:1011700000240000002400000024000000240000DF
:1011800000240001002300000023000000230000D1
:1011900000230000002300000023000000230001C2
:1011A00000220000002200000022000000220000B7
:1011B00000220000002200010021000000210000A8
:1011C000002100000021000000210000002100009B
:1011D000002100010020000000200000002000008D
:1011E000002000000020000000200000002000007F
:1011F00000200001001F0000001F0000001F000071
:10120000001F0000001F0000001F0000001F000161
:10121000001E0000001E0000001E0000001E000056
:1012200000043700001E290000511B000058100068
:101230000010090000CC0400007802000041010009
:1012400000204D393220580020496E76616C696467
:1012500020657874727564657220004361703A008D
:10126000526573656E643A20006F70656E0054526B
:1012700049474745524544003A20007A5F6D696E00
:1012800000795F6D696E00785F6D696E0052657000
:101290006F7274696E6720656E6473746F7020730B
:1012A00074617475730A00486F6D696E67204661DA
:1012B000696C656400DB0FC93F45BCDA3F8FB30240
:1012C00040FCF0274056946140FE4B9B4084A5D8DB
:1012D00040E0231841346A5641E859974164DBD510
:1012E000416E271742B4B75542CE1A9742C8AED5C1
:1012F00042B5885A43D40684BFA65FA7BF7443E0B3
:10130000BF10B11AC01C2C58C0E8F697C0B849D617
:10131000C04E4E17C124D355C1802497C1A0B5D566
:10132000C1121A17C244AE55C2781797C26CACD519
:10133000C267885AC320746F6F206C6F6E67206518
:101340007874727573696F6E2070726576656E74ED
:1013500065640A0020636F6C64206578747275732D
:10136000696F6E2070726576656E7465640A000040
:10137000002100240027002A002D00300033000146
:10138000010000040107010A012121204B494C4CB6
:101390002063617573656420627920746F6F206DBE
:1013A00075636820696E6163746976652074696D20
:1013B00065202D2063757272656E7420636F6D6D8C
:1013C000616E643A20005072696E746572207374A5
:1013D0006F707065642064756520746F206572722B
:1013E0006F72732E2046697820746865206572726A
:1013F0006F7220616E6420757365204D3939392014
:10140000746F20726573746172742E202854656D38
:101410007065726174757265206973207265736599
:10142000742E20536574206974206166746572207F
:1014300072657374617274696E67290A004E6F2059
:10144000436865636B73756D2077697468206C6998
:101450006E65206E756D6265722C204C6173742010
:101460004C696E653A2000636865636B73756D2027
:101470006D69736D617463682C204C617374204CCA
:10148000696E653A20004C696E65204E756D626527
:1014900072206973206E6F74204C617374204C69E4
:1014A0006E65204E756D6265722B312C204C617318
:1014B00074204C696E653A20004D3131300053651F
:1014C0007269616C20737461747573206D69736DDA
:1014D000617463680A00627573793A20706175738C
:1014E000656420666F7220696E7075740A0062759B
:1014F00073793A2070617573656420666F72207528
:101500007365720A00627573793A2070726F636551
:101510007373696E670A005072696E746572206831
:10152000616C7465642E206B696C6C282920636182
:101530006C6C6564210A006563686F3A00457272DD
:101540006F723A002020506C616E6E657242756653
:1015500066657242797465733A200020467265654B
:10156000204D656D6F72793A2000436F6D70696C24
:1015700065643A204D617220203920323032310AC0
:1015800000204C61737420557064617465643A2066
:10159000323032312D30332D3039207C204175747A
:1015A000686F723A20286E6F6E652C2064656661E4
:1015B000756C7420636F6E666967290A00627567CF
:1015C0006669782D322E302E780A004D61726C6972
:1015D0006E0020536F667477617265205265736583
:1015E000740A00205761746368646F6720526573E2
:1015F00065740A002042726F776E206F75742052F6
:10160000657365740A002045787465726E616C209C
:1016100052657365740A00506F77657255700A00E1
:1016200073746172740A00205A3A0020593A0020FB
:10163000583A00656E6473746F7073206869743A09
:10164000200070012C0190012701B0012201C0018E
:101650001D01F00118011002130130020E01600299
:10166000090190020401C002FF000003FA004003D8
:10167000F5008003F000D003EB002004E6007004C6
:10168000E100E004DC004005D700C005D2004006C0
:10169000CD00D006C8008007C3003008BE00F008A7
:1016A000B900C009B400B00AAF00B00BAA00D00C5A
:1016B000A500000EA000500F9B00C0109600501215
:1016C000910000148C00C0158700B0178200B0197B
:1016D0007D00D01B7800001E730040206E00902219
:1016E0006900F024640040275F0090295A00E02B35
:1016F0005500102E500020304B0010324600E033D1
:10170000410090353C001037370070383200A03966
:101710002D00B03A2800A03B2300603C1E00103D85
:101720001900903D1400103E0F00703E0A00C03EAC
:101730000500003F0000403FFBFF803FF6FFC03F39
:10174000F1FF20436F756E7420583A0045310062F6
:101750006564002C2073797374656D2073746F70E9
:1017600070656421204865617465725F49443A2060
:10177000004572723A204D415854454D50004D413C
:101780005854454D502074726967676572656400EE
:101790004572723A204D494E54454D50004D494EC8
:1017A00054454D5020747269676765726564002006
:1017B0002F0020403A005761726E696E673A2048E8
:1017C0006F6D696E672042756D702044697669732C
:1017D0006F72203C20310A000202040000484300DE
:1017E000004843000048430000A0400000A0400023
:1017F000000040220A00556E6B6E6F776E20636F9B
:101800006D6D616E643A20220020453A00205A3AFC
:101810000020593A00583A00000022002500280014
:101820002B002E00310034000201000005010801E8
:101830000B01050505050705080808080202020254
:101840000A0A08080404040401010101010101015C
:101850000303030303030303040707070C0C0C0C27
:101860000C0C0C0C02020202060606060606060610
:101870000B0B0B0B0B0B0B0B01021020200808109D
:1018800020401020408002010201080402010102F0
:1018900004081020408080402010080402018004C9
:1018A0000201804020100804020108040201010224
:1018B000040810204080010204081020408000002D
:1018C0000A0B02090C0D0E080703040100000000BA
:1018D0000000000000000000000000000000000008
:1018E00000000000000000000000121110000000C5
:1018F00000000000000000000000000000000000E8
:1019000000000000C05F11241FBECFEFD1E2DEBF98
:10191000CDBF00E00CBF12E0A0E0B2E0EAE3F7EDDB
:1019200000E00BBF02C007900D92A635B107D9F7B2
:101930002BE0A6E5B2E001C01D92AE39B207E1F797
:101940001CE0C3E8DCE000E006C021970109802F1D
:10195000FE010E945668C238D10780E00807A9F747
:101960000E94AA5C0C949B6B0C9400002F923F92F7
:101970004F925F926F927F928F929F92AF92BF929F
:10198000CF92DF92EF92FF920F931F93CF93DF934B
:10199000CDB7DEB7C657D1090FB6F894DEBF0FBE7C
:1019A000CDBF20919904A3962FAFA39721E0209358
:1019B0009904809198048D3409F467C2843511F438
:1019C0000C94821C873411F00C94A01C0091960496
:1019D000109197040430110509F491C138F48091F5
:1019E00094040230110508F0FAC02AC00A35110526
:1019F00009F4D2C150F40531110511F40C94A21C64
:101A00000C31110509F4BAC13CC20B35110509F4BA
:101A1000C7C10C35110509F034C2EBE42E2EE2E00B
:101A20003E2EF0E7EF2EF4E0FF2EAAE4BBE0BC8FE1
:101A3000AB8FAAE5CA2EABE0DA2E00E010E0F1C1D0
:101A4000813011F00C94A21C0E94413684E894E08D
:101A50000E94EE3080914E0A83FD85C02091560B86
:101A60003091570B4091580B5091590B6091900455
:101A70007091910480919204909193040E94F66376
:101A8000882309F470C08091C40581111BC0609146
:101A9000C9057091CA058091CB059091CC050E9433
:101AA000DD692091320230913302215031096217F1
:101AB000730744F40E94A04886E298E00E946148BF
:101AC00011E001C010E02091560B3091570B40916E
:101AD000580B5091590B6091900470919104809132
:101AE0009204909193040E9470686B017C0120E045
:101AF00030E0A9010E94D16A87FF04C0F7FAF09490
:101B0000F7F8F09420912E0230912F02409130028C
:101B100050913102C701B6010E945C6420E030E0C0
:101B200048E453E40E94D16A18163CF40E94A0488D
:101B300087E098E00E94614802C01123A1F08091E3
:101B4000900490919104A0919204B0919304809399
:101B5000560B9093570BA093580BB093590B80E9F9
:101B600094E00E9413582AE037ED43E25CE3609171
:101B700026027091270280912802909129020E94EA
:101B80005C646B017C016091240270912502072E38
:101B9000000C880B990B0E94FD639B01AC01C701EF
:101BA000B6010E945C6469837A838B839C838E0177
:101BB0000F5F1F4F20E934E04CE854E068E874E020
:101BC00084E894E00E94505C80E1E4E8F4E0AAE458
:101BD000BBE001900D928A95E1F70C94A21C813034
:101BE00011F00C94A21C332433940230110509F037
:101BF000312C0E94413682E50E943436882309F454
:101C00004CC00E94AF356B017C0120E030E0A9019F
:101C10000E94F663882311F40C94891D80914A0B6D
:101C200090914B0BA0914C0BB0914D0B8B8F9C8FD7
:101C3000AD8FBE8F20914E0B30914F0B4091500BCA
:101C40005091510B2F8F38A349A35AA3809084043D
:101C500090908504A0908604B090870440908804FA
:101C60005090890460908A0470908B04A5019401BF
:101C7000BC01CD010E94F66381110C94D31CA30119
:101C800092016F8D78A189A19AA10E94F6638823A1
:101C900011F40C94891D0C94D31C89E40E943436F1
:101CA000882329F00E94AF356B017C0103C0C12C51
:101CB000D12C76018AE40E943436882311F40C94E6
:101CC000901D0E94AF356BA37CA38DA39EA320E043
:101CD00030E0A901C701B6010E94F66381110C949E
:101CE0009D1D20E030E0A9016BA17CA18DA19EA1EA
:101CF0000E94F66381110C949D1D0C94891D80E552
:101D00000E943436882379F080917E0490917F047C
:101D1000009749F04AE050E060E070E00E9476628F
:101D20006B017C0103C0C12CD12C760183E50E949C
:101D30003436882361F00E94AF3520E030E04AE776
:101D400054E40E945C640E94E4696B017C010E947F
:101D500038550E94564EC60ED71EE81EF91E0E9428
:101D6000564EDC01CB018C199D09AE09BF09B7FDA8
:101D700002C00C94A21C0E94E148F1CF0E94255C95
:101D800081110C94752160E08FE40E941837811155
:101D90000C94A21C0C947521109295040C94A21C16
:101DA0008FE0809395040C94A21C0E94AF352B0108
:101DB0003C01133049F0D6012D913D914D915C913C
:101DC0000E9470682B013C01EB8DFC8D20813181DC
:101DD00042815381C301B2010E9470684B015C01D2
:101DE0002DEB37E346E855EB0E94D16A87FD21C011
:101DF0002DEB37E346E855E3C501B4010E94F663D5
:101E00001816BCF01F5FF4E0EF0EF11C2B8D3C8D1B
:101E10002C5F3F4F3C8F2B8F34E0C30ED11C14300E
:101E200031F1F10181911F010E943436882351F371
:101E3000BCCF133051F44092560B5092570B609226
:101E4000580B7092590B01E0DDCFA5019401D70129
:101E50006D917D918D919C910E947168F7016083D5
:101E6000718382839383812F0E94125ACBCF0023E8
:101E700021F086E59BE00E9413580E9477320C9473
:101E8000A21C0E94105C0C94A21C8091960490915C
:101E900097048537910511F40C94A21C08F00FC12A
:101EA0008C35910509F495C5E8F58D34910509F453
:101EB00067C2C0F48F31910509F4A0C148F48131A3
:101EC000910509F487C1429709F428C50C947F1C39
:101ED0008B34910509F43BC28C34910509F43BC263
:101EE0000C947F1C8335910509F410C588F4813565
:101EF000910509F4FBC48235910511F00C947F1C07
:101F0000809195048F7D8061809395040C94A21C30
:101F10008435910509F402C58535910509F436C566
:101F20000C947F1C8D36910509F453C2E0F48A3677
:101F3000910509F4FAC350F48836910509F424C2D6
:101F40008936910509F4E1C30C947F1C8B36910509
:101F500009F40EC48C36910511F00C947F1C10927C
:101F600009020C94A21C8037910509F468C450F44E
:101F70008E36910509F406C48F36910509F415C40F
:101F80000C947F1C8237910509F4ADC508F462C436
:101F90008337910511F00C947F1C84EA96E00E942F
:101FA000614860E084E996E00E94163560E08FE7C2
:101FB00096E00E94163560E088E796E00E941635AC
:101FC00061E08DE696E00E94163561E08DE596E0D1
:101FD0000E94163560E084E596E00E94163561E0C7
:101FE0008AE496E00E94163560E080E496E00E9464
:101FF000163560E089E396E00E94163560E081E3E3
:1020000096E00E94163560E083E296E00E94163565
:1020100060E085E196E00E94163560E086E096E09B
:102020000E94163560E088EF95E00E94163560E06A
:1020300082EE95E00E94163560E081ED95E00E9409
:10204000163560E082EC95E00E94163560E08BEB7F
:1020500095E00E94163560E084EB95E00E9416350D
:1020600060E08FE995E00E94163560E081E995E037
:102070000E94163561E08EE795E00E94163560E01B
:1020800081E795E00E94163561E08CE695E00E94BC
:10209000163560E08FE595E00E94163560E08BE430
:1020A00095E00E94163560E088E395E00E941635C1
:1020B00060E08FE295E00E9416350C94A21C8C3DE6
:1020C000910509F449C7E0F5883C910509F45CC520
:1020D000E0F48837910509F449C568F4863791051D
:1020E00009F408C58737910511F00C947F1C0E94F4
:1020F000FE320C94A21C8937910509F43EC58B3938
:10210000910509F4CCC30C947F1C8C3C910509F417
:10211000CAC550F4893C910509F47DC58B3C9105F5
:1021200009F4A0C50C947F1C8E3C910509F402C6ED
:1021300008F4EDC5833D910509F448C60C947F1C55
:102140008A3941E0940709F481C300F58E32A1E099
:102150009A0711F40C94C11850F48D3D910509F4BF
:102160003CC78D32914009F48DC70C947F1C8F328F
:10217000F1E09F0711F40C9405198039914011F09A
:102180000C947F1C0E9438550C94A21C853F31E0B2
:10219000930711F40C94611C68F48C3A51E0950794
:1021A00011F40C94D01B843F914011F40C94A21CA8
:1021B0000C947F1C873FB1E09B0711F40C946A1CC0
:1021C00010F40C94671C873E934011F40C94731C1C
:1021D0000C947F1C80916C0484FF02C00C949922A3
:1021E00080916E0487FF02C00C94992280916F0445
:1021F000837011F00C9499220C94B5220E941A332A
:102200007B018C0120E831E541E050E00E94E76766
:10221000C9016DE671E00E9423684B015C01C801B1
:10222000B70120E13EE040E050E00E94E767CA01CC
:10223000B90128E130E040E050E00E94E767762EE7
:10224000672EC62ED72E7CE3272E312C412C512C05
:10225000C801B701A20191010E94E767F62EE72E9F
:10226000CA01B901A20191010E94E767CB018E0169
:102270000F5F1F4F8114910499F0EF92FF927F93AB
:102280006F936F927F92BF92AF929F928F9280EDE9
:1022900097E09F938F931F930F930E94C76313C080
:1022A000A114B104B1F0EF92FF927F936F936F92FC
:1022B0007F92BF92AF9280EC97E09F938F931F9392
:1022C0000F930E94C7630FB6F894DEBF0FBECDBF59
:1022D00030C0CD2879F0EF92FF927F936F936F9289
:1022E0007F9284EB97E09F938F931F930F930E94AD
:1022F000C763E9CF892B69F0EF92FF927F936F93C9
:102300008CEA97E09F938F931F930F930E94C7636C
:10231000DACFEF92FF9288EA97E09F938F931F9313
:102320000F930E94C7630F900F900F900F900F9024
:102330000F900E94A04884EE97E00E946148C80177
:102340000E942F488AE00E9458480C94A21C0E94C8
:1023500069330C94A21C80916B04813011F00C94B1
:10236000A21C82E080936B040E94564E6093670427
:10237000709368048093690490936A040C94A21C7F
:102380000E948D330C94A21C80914E0A83FF02C0E0
:102390000C94A21C0E94F33687FF02C00C94A21C6E
:1023A00083E50E943436882381F00E94AF350E9475
:1023B000DD69CB010E941C4F8091CD059091CE0527
:1023C0008635910514F40C94BE220E94B2540C94EC
:1023D000A21C80914E0A83FF02C00C94A21C0E9492
:1023E000F3368BAF87FF02C00C94A21C83E50E94DA
:1023F00034368BAB81110C94C22282E50E943436B4
:1024000081110C94C22210E00E94B254112311F4E5
:102410000C94A21CB09166046196BFAF61971092B4
:10242000660481E0809309021F8E18A219A21AA2E5
:102430001FAA18AE19AE1AAE24961FAE2497ECE36D
:102440002896EFAF2897FCE12C96FFAF2C9726E457
:1024500060962FAF6097C12CD12C50E8E52E6FEB22
:10246000F62E1B8E31E03FAF812C912C54016091F0
:10247000CD057091CE05072E000C880B990B0E949C
:10248000FD63162F072F382E292E9601A7010E94D3
:10249000F663882321F12091C9053091CA05409146
:1024A000CB055091CC058BA9612F702F811109C0EC
:1024B000832D922D0E94F663881F8827881F8B8F9B
:1024C00014C0832D922D0E94F66387FF0DC080916A
:1024D0000902882309F412C1109209020FC11C2DB0
:1024E0000D2D3E2C2F2C01C01B8E0E94564E6B01D1
:1024F0007C01DC01CB012FA938AD49AD5AAD821B5F
:10250000930BA40BB50BB7FD34C0D701C60188519E
:102510009C4FAF4FBF4F8FAB98AFA9AFBAAF8BAD4A
:102520000E945C4F84EA97E00E9461488114910404
:10253000A104B104C1F0D501C401805F984DAF4F33
:10254000BF4FBC01CD016C197D098E099F0928EE92
:1025500033E040E050E00E94E767CA01B9014AE079
:102560000E945C3703C08FE30E9458488AE00E94B3
:1025700058480E94E1480E94564E60938004709330
:10258000810480938204909383049091C9059BA356
:10259000A091CA05AFA3B091CB05BFA7E091CC0530
:1025A000EBA7292F3A2F4B2F5E2F612F702F832DF2
:1025B000922D0E9470682B013C0120E030E0A901BF
:1025C0000E94D16A87FF04C077FA709477F87094FC
:1025D00081149104A104B104E1F420E030E040E86A
:1025E0005FE3C301B2010E94F66387FF1EC0FFAD27
:1025F000FF2329F085E09DE0A0E0B0E003C080E08B
:1026000090E0DC0146015701880E991EAA1EBB1EF0
:102610000CC020E030E040E450E4C301B2010E946D
:10262000D16A181614F4460157012B8D222309F4A0
:1026300048C08F8D98A1A9A1BAA1892B8A2B8B2B79
:1026400061F0D701C6012F8D38A149A15AA1821B83
:10265000930BA40BB50BB7FD34C02BA13FA14FA525
:102660005BA524966FAD249728967FAD28972C966E
:102670008FAD2C9760969FAD60970E94706820E0A8
:1026800030E040EC5FE30E94F66387FD20CFD70186
:10269000C601805A9541AF4FBF4F8F8F98A3A9A312
:1026A000BAA39BA124969FAF2497AFA12896AFAF62
:1026B0002897BFA52C96BFAF2C97EBA56096EFAFE0
:1026C000609780910902882309F401CF8114910455
:1026D000A104B10431F41FAEC12ED02EE32CF22C94
:1026E000C6CEF0E1CF1AF7E2DF0AE108F108C81818
:1026F000D908EA08FB08F7FCEECFE9CE61962FADCA
:102700006197209366040C94A21C0E94F336182F44
:1027100087FF02C00C94B41C81EA97E00E946148D4
:10272000812F0E945C4F0C94B11C80E50E94495C93
:1027300081110C94A21C81E40E94E635882321F0CB
:102740006091B305062F02C00FEF10E083E50E94F1
:102750003436882349F00E947B358B016F3F710529
:1027600019F010F00FEF10E00093B3050C94A21CC9
:1027700080E50E94495C81110C94A21C1092B30563
:102780000C94A21C8EE40E943436882311F40C941D
:10279000A21C0E947B356093FF037093000480931A
:1027A0000104909302040C94A21C83E50E94E63578
:1027B000882329F083E50E94495C80934E0A0E9499
:1027C000A0488AE997E00E94614880914E0A8823D8
:1027D00069F140E9E42E47E0F42E00E010E020E04B
:1027E00080914E0A90E0A0E0B0E0002E04C0B695C3
:1027F000A795979587950A94D2F780FF0EC0DD24A0
:10280000D394D20E222319F08CE20E945848F7018B
:10281000859194910E9461482D2D0F5F1F4F42E0DA
:10282000E40EF11C05301105D9F604C08CE897E0E0
:102830000E9461488AE00E9458480C94A21C41E022
:1028400060E070E08EE797E00E94A4480E94F831B3
:102850000C94A21C83E50E943436882381F00E94E8
:102860008B35282F30E02D33310524F48093080276
:102870000C94A21C8CE3809308020C94A21C0E946E
:10288000A0481091080287E797E00E946148812FD5
:102890000E949E5B8AE00E9458480C94A21C83E52B
:1028A0000E943436882311F40C94A21C0E948B35AC
:1028B000182F8D3308F08CE38093FE030E94564E50
:1028C0006B017C01212F30E0A8EEB3E00E94146878
:1028D000C60ED71EE81EF91EC092FA03D092FB0363
:1028E000E092FC03F092FD030C94A21C0E94E64FC0
:1028F0000E9448550E948D331092B30568EE73E034
:1029000080E090E00E942D370C94A21C80919504E9
:102910008F7E8062809395040C94A21C83E50E94B4
:1029200034368823F1F00E94564E609380047093F1
:10293000810480938204909383040E94AF3520E049
:1029400030E04AE754E40E945C640E94E4696093CA
:1029500004027093050280930602909307020C9480
:10296000A21C80916C0484FF02C00C94D822809138
:102970006E0487FF02C00C94D82280916F0483708C
:1029800011F00C94D8220E944855DCC783E50E94C0
:10299000E635882309F4D6C70E94564E609380041A
:1029A0007093810480938204909383040E94AF35D6
:1029B00020E030E04AE754E40E945C640E94E4694D
:1029C0006093F5037093F6038093F7039093F803F5
:1029D000B9C70E94F33687FDB5C790916C0494FD8A
:1029E00004C090916E0497FF0AC02BE4C22E22E02F
:1029F000D22E3FE4E32E3AE0F32E10E009C090918E
:102A00006F04937091F7682F81E00E9440359AC758
:102A1000D6018D916D010E943436882309F459C086
:102A2000133009F04FC00E94AF354B015C0120E02C
:102A300030E040EA51E40E94F66387FF3AC0A50106
:102A4000940160916F0A7091700A8091710A90915F
:102A5000720A0E946B692B013C019B01AC016091E1
:102A60007F0A7091800A8091810A9091820A0E9467
:102A70005C6460937F0A7093800A8093810A9093CC
:102A8000820A6091AB057091AC058091AD05909183
:102A9000AE050E94FB63A30192010E945C640E9448
:102AA000E4696093AB057093AC058093AD0590939A
:102AB000AE0580926F0A9092700AA092710AB0924D
:102AC000720A07C00E94AF35F701648B758B868B45
:102AD000978B1F5FF4E0EF0EF11C143009F098CFD4
:102AE0000E9448592FC70E94A55B88E89BE00E947E
:102AF0005E5428C70091F3031091F40394E0F12C85
:102B000040E0915031F1D8018C91282F2B7F213456
:102B100029F411962C912133E1F408C08035C9F4D1
:102B2000F801818180538A3048F013C0813421F04C
:102B3000853421F441E002C0FF24F39498012E5F14
:102B40003F4F89012F5F3F4FD8018C918032C9F3ED
:102B5000D8CF41110E94A048FF2021F08CE295E0DF
:102B60000E946148C8010E942F35ECC620937D0465
:102B700020937C040E945137E5C610927D04109288
:102B80007C040E945137DEC60E94F336182F87FD61
:102B9000D9C60091F20384E40E943436882311F4EC
:102BA0000C9409230E94AF356B017C0120E030E0DA
:102BB000A9010E94F663882341F1B4E01B02F001F1
:102BC0001124E251FC4FC082D182E282F38220E0E4
:102BD00030E0A9016091EE037091EF038091F00362
:102BE0009091F1030E94F66381110CC080E090E0A7
:102BF000A0EEBFE38093EE039093EF03A093F00366
:102C0000B093F10301E00C94092380E08093F20378
:102C10000E94595597C60E94F33687FD93C68BE4F0
:102C2000E82E82E0F82E0FE41AE09FE5C92E9AE024
:102C3000D92EF70181917F010E94E635882361F04A
:102C40000E94AF350E94E469D8016D937D938D9306
:102C50009C9313970E94F1540C5F1F4FC016D1062E
:102C600041F770C60E94F33687FD6CC60BE4E02E78
:102C700002E0F02E0FE41AE0F70181917F010E943B
:102C8000E635882349F00E94AF35D80194966D93BC
:102C90007D938D939C9397970C5F1F4FBAE00F35F0
:102CA0001B0751F74FC680916D0487FF02C00C943B
:102CB0000F2380916E048E7011F00C940F234091BD
:102CC000830A5091840A6091850A7091860A8CE18A
:102CD00095E00E9470484091870A5091880A60915F
:102CE000890A70918A0A89E195E00E9470484091B2
:102CF0008B0A50918C0A60918D0A70918E0A86E140
:102D000095E00E9470488AE00E9458481BC6809156
:102D10006C0481FF02C00C94552380916D0481FFE7
:102D200002C00C94552380916E048C7011F00C94A9
:102D3000552308C612EEE12E13E0F12E10E088E5CF
:102D4000810F0E94E635882351F00E94AF35F701CC
:102D50006083718382839383812F0E94125A1F5F45
:102D6000F4E0EF0EF11C133051F780916E0487FDF3
:102D700084C880916F04837009F07FC84091E2039A
:102D80005091E3036091E4037091E50380EF94E0D8
:102D90000E9470484091E6035091E7036091E80378
:102DA0007091E9038DEE94E00E9470484091EA032F
:102DB0005091EB036091EC037091ED038AEE94E087
:102DC0000E9470488AE00E945848BCC540905A0B47
:102DD00050905B0B60905C0B70905D0B20910C022F
:102DE00030910D0240910E0250910F02C301B201C9
:102DF0000E9471686B8F7C8F8D8F9E8F80905E0B91
:102E000090905F0BA090600BB090610B209110022E
:102E1000309111024091120250911302C501B40188
:102E20000E9471686F8F78A389A39AA3C090620BE8
:102E3000D090630BE090640BF090650B209114022E
:102E4000309115024091160250911702C701B60148
:102E50000E9471686BA37CA38DA39EA3209118028E
:102E60003091190240911A0250911B02C301B20124
:102E70000E9471682B013C0120911C0230911D02BF
:102E800040911E0250911F02C501B4010E94716859
:102E90004B015C01209120023091210240912202DD
:102EA00050912302C701B6010E9471686B017C0139
:102EB0000E94A0488AED94E00E94614883E50E9448
:102EC000E635882321F00E949F3580930A02809185
:102ED0000A02882319F082EC94E002C08EEB94E0A1
:102EE0000E94614882ED94E00E9461484B8D5C8DA8
:102EF0006D8D7E8D85EC94E00E9470484F8D58A1B9
:102F000069A17AA18DEE94E00E9470484BA15CA16A
:102F10006DA17EA18AEE94E00E94704880ED94E05D
:102F20000E94614888EC94E00E946148B301A201CC
:102F300085EC94E00E947048B501A4018DEE94E008
:102F40000E947048B701A6018AEE94E00E94704882
:102F50008AE00E945848F6C482E40E94E63588233D
:102F600041F0809124029091250290930302809376
:102F7000020282E50E94E635882341F08091020238
:102F800090910302909325028093240283E50E948E
:102F90003436882331F00E947B357093250260938C
:102FA000240280916C0490916D04A0916E04B09104
:102FB0006F04892B8A2B8B2B09F0C4C460912402E7
:102FC000709125028AEB94E00E94924885E20E946B
:102FD00058488AE00E945848B5C40E94F336082F2A
:102FE00087FDB0C483E50E943436002E000C110B1F
:102FF000882369F10E947B35F801EE0FFF1FE05036
:10300000FE4F71836083000F111F000F111F980185
:10301000225D3D4F7901072E000C880B990B0E9411
:10302000FD632AE037ED43E25CE30E945C64F80153
:10303000E252FC4F20813181428153810E945C64C5
:10304000D7016D937D938D939C9313977BC40E94BE
:10305000A04885E40E94584880E3800F0E945848A9
:10306000000F111FF801E050FE4F6081718182EB6B
:1030700094E00E94924885E20E9458488AE00E94AB
:10308000584860C485E40E94495C811173C080E5A2
:103090000E94E635882351F00E94AF356093D00539
:1030A0007093D1058093D2059093D30589E40E9453
:1030B000E635882381F00E94AF352CEA35EC47E2F3
:1030C0005EE30E945C646093D4057093D5058093A1
:1030D000D6059093D70584E40E94E635882381F0D5
:1030E0000E94AF352CEA35EC47E25EE30E946B6943
:1030F0006093D8057093D9058093DA059093DB052A
:103100000E94A0484091D0055091D1056091D20510
:103110007091D3058CE994E00E9470482CEA35EC5C
:1031200047E25EE36091D4057091D5058091D605A4
:103130009091D7050E946B69AB01BC0188E994E0CE
:103140000E9470482CEA35EC47E25EE36091D805B6
:103150007091D9058091DA059091DB050E945C643D
:10316000AB01BC0184E994E00E9470488AE00E94AF
:103170005848E8C30E949C4880EA94E00E94614855
:10318000E1C383E50E94E635182F882371F00E9481
:10319000AF350E94DD69709333026093320221E003
:1031A000672B09F020E02093C40580E50E94E635F6
:1031B000882359F02091320230913302232B11F0F1
:1031C0000E949F358093C405BDC31111BBC30E94EB
:1031D000A04881E894E00E9461488091C40588235A
:1031E00019F089E694E002C085E694E00E94614807
:1031F000609132027091330280E794E00E9492481D
:103200008CE694E00E9461489DC385E40E943436B8
:10321000882321F00E947B356111BDC283E50E94A5
:103220003436882319F00E94AF3504C060E070E0A6
:1032300084E393E40E94DD696B017C0183E40E94D6
:103240003436882321F00E947B35762E02C0E5E0DB
:103250007E2E60E085E50E941837E1968FAFE197FA
:10326000B601DD0C880B990B0E94FD636F8F7BA369
:103270008FA39FA70E94564E4B015C0120E030ECCB
:103280004FE756E46F8D7BA18FA19FA50E94D16A65
:1032900018162CF486E194E00E94614853C3A501FE
:1032A0009401205E314B4F4F5F4FE0962CAF3DAF06
:1032B0004EAF5FAFE09782E094E00E9461480E94C9
:1032C000E64F8FE78093CF0581E0809309026596F2
:1032D0008CAE9DAEAEAEBFAE6597A7968CAE9DAEE2
:1032E000AEAEBFAEA79769961CAE1DAE1EAE1FAEAA
:1032F00069976D961CAE1DAE1EAE1FAE6D971BA6D8
:103300001CA61DA61EA67FE7C72ED12CE12CF12CF2
:103310001BAA30E43FAB4CE14FAF56E424965FAFBD
:10332000249728961FAE28972C961FAE2C97609650
:103330001FAE609761961FAE61978FE790E0A0E0A7
:10334000B0E08B8F9C8FAD8FBE8FA8961FAEA897D5
:10335000AC961CAE1DAE1EAE1FAEAC97A2961CAEB8
:103360001DAE1EAE1FAEA29791E06E969FAF6E97F8
:103370001CAE1BAE10E0212C312C00E0A72D770CE9
:10338000BB0BE396BFAFAEAFE3970E94564E2B0147
:103390003C018091DD03882309F4B4C00E94F04F02
:1033A0001091C9052090CA053090CB050091CC053D
:1033B00028962FAD28972C963FAD2C9760964FAD51
:1033C000609761965FAD6197612F722D832D902F6D
:1033D0000E94D16A181664F428961FAF28972C967D
:1033E0002FAE2C9760963FAE609761960FAF6197B6
:1033F0002BA93FA94FAD24965FAD2497612F722D65
:10340000832D902F0E94F66387FF06C01BAB2FAA67
:103410003FAE24960FAF24976E96BFAD6E97212FC7
:10342000322D432D502F6F8D7BA18FA19FA5BB23E4
:1034300009F44EC00E94F66387FF64C0A3019201A5
:10344000281939094A095B09E7962CAF3DAF4EAF01
:103450005FAFE797DA01C90188589341A109B10923
:10346000B7FD50C0D701C6012B8D3C8D4D8D5E8DB3
:10347000821B930BA40BB50BB595A79597958795D4
:103480008093CF05E7968CAD9DADAEADBFADE79710
:10349000A2968CAF9DAFAEAFBFAFA2979F8D28967F
:1034A0009FAF2897ABA12C96AFAF2C97BFA160968A
:1034B000BFAF6097EFA56196EFAF619765964CAE91
:1034C0005DAE6EAE7FAE65976E961FAE6E971AC0FC
:1034D0000E94D16A1816B4F4D301C20165962CADCE
:1034E0003DAD4EAD5FAD6597821B930BA40BB50B45
:1034F000AC01BD01485853416109710977FD02C013
:103500000C94BC2320E030E040EF51E46F8D7BA1B0
:103510008FA19FA50E947168212F322D432D502F1E
:103520000E94F66387FF03C08FE893E0B0C0D30129
:10353000C201A7962CAD3DAD4EAD5FADA797821BE6
:10354000930BA40BB50BB7FD86C080E00E945C4FC7
:103550008AE00E945848D301C2018053984FAF4F70
:10356000BF4FA7968CAF9DAFAEAFBFAFA797A89642
:103570009FADA897911154C0AC962CAD3DAD4EAD0A
:103580005FADAC97612F722D832D902F0E94D16A71
:1035900018169CF520E030E040E050E4612F722DD9
:1035A000832D902F0E947168AC966CAF7DAF8EAF6B
:1035B0009FAFAC97A3019201205E314B4F4F5F4FFD
:1035C000E0962CAF3DAF4EAF5FAFE09720E030E02C
:1035D00040EC50E46F8D7BA18FA19FA50E94706885
:1035E000212F322D432D502F0E94F663881F8827EC
:1035F000881FA8968FAFA8972EC0D301C201E0966E
:103600002CAD3DAD4EAD5FADE097821B930BA40B8F
:10361000B50BB7FD20C041E753E060E873E018C088
:1036200020E030E040EF51E46F8D7BA18FA19FA59A
:103630000E9470689B01AC01612F722D832D902F29
:103640000E94F66387FF07C041E553E061E673E03F
:1036500080E00E94975065968CAD9DADAEADBFAD3C
:10366000659788169906AA06BB0610F4D501C40111
:10367000A3019201281B390B4A0B5B0BDA01C9012C
:1036800081389F44A241B10548F083E393E00E9452
:103690006148109209020E94E64F54C1E3964EAD74
:1036A0005FADE3978BAD9CAD481759070CF06DCE1D
:1036B00003970CF46ACE86ED92E00E94614889EB94
:1036C00092E00E9461484BA55CA56DA57EA582EDA8
:1036D00092E00E9470488AE00E94584889EB92E08C
:1036E0000E9461486D964CAD5DAD6EAD7FAD6D973E
:1036F0008EEC92E00E9470488AE00E94584889EB64
:1037000092E00E94614869964CAD5DAD6EAD7FADB3
:1037100069978AEC92E00E9470488AE00E945848BB
:10372000E1969FADE197992309F40CC12BA53CA527
:103730004DA55EA52093D0053093D1054093D205C9
:103740005093D3052CEA35EC47E25EE36D966CAD01
:103750007DAD8EAD9FAD6D970E945C646093D40586
:103760007093D5058093D6059093D7052CEA35EC58
:1037700047E25EE369966CAD7DAD8EAD9FAD699716
:103780000E946B696093D8057093D9058093DA0520
:103790009093DB05D7C081E494E00E946148D2C0D9
:1037A0000E94255CAE014F5F5F4F1A01882371F1C3
:1037B00082FF03C04FE452E002C044E552E081FFC3
:1037C00003C021E532E002C024E532E080FF03C0FF
:1037D00083E592E002C084E592E05F934F933F93CC
:1037E0002F939F938F938AE792E09F938F933F92BB
:1037F0002F920E94C7630E94A048C1010E942F35EA
:103800000FB6F894DEBF0FBECDBF9CC00DEA12E02C
:103810008AE49BE09C8F8B8F2AEAC22E22E0D22E74
:103820007A01F8016591759185919491AB8DBC8D6C
:103830008D909D90AD90BD90BC8FAB8FA5019401F4
:103840000E9470682B013C01F701608371838283C1
:10385000938320E030E040EA51EC0E94D16A87FD7A
:103860000AC020E030E040EA51E4C301B2010E9406
:10387000F663181634F4F6018491181614F40C94B7
:103880001825D7018D909D90AD90BD907D0120E0D1
:1038900030E040EA51ECC501B4010E94D16A87FFD3
:1038A00002C00C94242520E030E040EA51E4C50138
:1038B000B4010E94F663181614F00C942C250C9495
:1038C00024250E94A82C80E00E942F2E3BC00E943D
:1038D000A82C38C061E083E50E94183791E0892761
:1038E0000E942F2E2FC081E08093940460E083E536
:1038F0000E941837811126C00E947D3723C00E9484
:10390000105C20C0109196040E94564E6093800473
:10391000709381048093820490938304112391F027
:103920000E94A04884E50E945848812F0E949E5B17
:1039300080E20E94584888E692E00E94614802C0F6
:103940000E94105CE091570221E6E29FF0011124F1
:10395000E754FD4F8081811107C085E692E00E9407
:1039600061488AE00E945848A3963FADA3973093E0
:103970009904CA58DF4F0FB6F894DEBF0FBECDBF13
:10398000DF91CF911F910F91FF90EF90DF90CF903B
:10399000BF90AF909F908F907F906F905F904F906F
:1039A0003F902F90089520E030E0A901C701B601B3
:1039B0000E94F663881F8827881F381609F4A4C060
:1039C00080E090E0A0E8BFEB8BA39CA3ADA3BEA3D7
:1039D0002B8D3C8D4D8D5E8DC501B4010E947068AC
:1039E00020E030E040E05FE30E945C646B8F7C8FFE
:1039F0008D8F9E8F2F8D38A149A15AA1C301B2018D
:103A00000E94706820E030E040E05FE30E945C6468
:103A10006F8F78A389A39AA32B8D3C8D4D8D5E8DDE
:103A2000CA01B9010E945C644B015C012F8D38A171
:103A300049A15AA1CA01B9010E945C649B01AC0171
:103A4000C501B4010E9471680E941F6B4B015C01AB
:103A50009B01AC01C701B6010E9470682B013C01BB
:103A6000A5019401C701B6010E9471689B01AC01D8
:103A7000C301B2010E945C646B017C0120E030E074
:103A8000A9010E94D16A87FD07C0C701B6010E9443
:103A90001F6B2B013C0103C0412C512C32016F8D57
:103AA00078A189A19AA19058A50194010E946B69FF
:103AB0002BA13CA14DA15EA10E945C64A3019201D7
:103AC0000E945C642B8D3C8D4D8D5E8D0E947168D3
:103AD0006B017C01A50194016B8D7C8D8D8D9E8D7C
:103AE0000E946B692BA13CA14DA15EA10E945C6468
:103AF000A30192010E945C642F8D38A149A15AA1B3
:103B00000E9471680C94630E80E090E0A0E8BFE32F
:103B10005BCF0E949C4881EF97E00E94614812CFE2
:103B200020E030E0A901C701B6010E94F6638823B6
:103B300081F31BA21CA21DA21EA2A7019601505830
:103B40002B8F3C8F4D8F5E8F8BA19CA1ADA1BEA111
:103B5000B0588F8F98A3A9A3BAA3CA01B9010E9434
:103B60005C644B015C012F8D38A149A15AA1CA01A7
:103B7000B9010E945C649B01AC01C501B4010E94C3
:103B800071680E941F6B6BA77CA78DA79EA7809072
:103B90004A0B90904B0BA0904C0BB0904D0BA70193
:103BA0009601C501B4010E9471686BAF7CAF8DAF07
:103BB0009EAF40904E0B50904F0B6090500B70900A
:103BC000510B2BA13CA14DA15EA1C301B2010E94EA
:103BD00071686BAB7CAB8DAB9EABC0908404D09016
:103BE0008504E0908604F090870420918804309149
:103BF000890440918A0450918B042FA338A749A7C8
:103C00005AA7A7019601C501B4010E9470684B0133
:103C10005C012DEB37E346E855EB0E94D16A87FD46
:103C2000BFC22DEB37E346E855E3C501B4010E945E
:103C3000F66318160CF4B4C22FA138A549A55AA5ED
:103C4000C301B2010E9470684B015C012DEB37E3A8
:103C500046E855EB0E94D16A87FDA2C22DEB37E3FF
:103C600046E855E3C501B4010E94F66318160CF44A
:103C700097C20230110509F488C208E110E0BBEDDB
:103C8000CB2EBFE0DB2EB9ECEB2EB0E4FB2E209167
:103C9000520B3091530B4091540B5091550B2FA761
:103CA00038AB49AB5AAB60918C0470918D04809114
:103CB0008E0490918F040E9470682B013C01A70133
:103CC00096016BA57CA58DA59EA50E945C644B0109
:103CD0005C0120E030E0A901C301B2010E94F6635B
:103CE0008823C9F0A5019401C501B4010E945C6458
:103CF0004B015C01A3019201C301B2010E945C640B
:103D00009B01AC01C501B4010E9471680E941F6B48
:103D10004B015C010DC020E030E0A901C501B401F8
:103D20000E94D16A87FF04C0B7FAB094B7F8B09484
:103D30002FE632E143E85AE3C501B4010E94F6637D
:103D400087FD18C28091900490919104A0919204F3
:103D5000B09193048FAB98AFA9AFBAAF2091560B37
:103D60003091570B4091580B5091590B2BA73CA702
:103D70004DA75EA72AE037ED43E25CE3609126029F
:103D80007091270280912802909129020E945C6420
:103D90006FA378A789A79AA7609124027091250242
:103DA000072E000C880B990B0E94FD639B01AC0150
:103DB0006FA178A589A59AA50E945C646F8B788F06
:103DC000898F9A8FC501B4010E94136A0E94E46929
:103DD0001B016017710708F41801B10180E090E041
:103DE0000E94FB634B015C019B01AC01C701B60162
:103DF0000E946B696FA378A789A79AA7A501940170
:103E0000C301B2010E946B692B966CAF7DAF8EAF80
:103E10009FAF2B972BA53CA54DA55EA56FA978ADAF
:103E200089AD9AAD0E947068A50194010E946B69EA
:103E30002F966CAF7DAF8EAF9FAF2F972FA138A578
:103E400049A55AA5CA01B9010E945C646B017C01B5
:103E50009B01AC016FA178A589A59AA50E945C641D
:103E600020E030E040EC50E40E946B699B01AC0123
:103E70006FA178A589A59AA50E9470686FAB78AFED
:103E800089AF9AAF20E030E040E05FE3C701B601C0
:103E90000E945C649B01AC0160E070E080E89FE3FD
:103EA0000E94706823966CAF7DAF8EAF9FAF239753
:103EB0008FA598A9A9A9BAA989879A87AB87BC8732
:103EC0002BA53CA54DA55EA52D873E874F87588B1A
:103ED0000E94564E9B01AC0128533F4F4F4F5F4FFE
:103EE00027962CAF3DAF4EAF5FAF27974B8C5C8CC6
:103EF0006D8C7E8C41E050E058AB4FA759E15BA739
:103F00008FA598A98215930508F00EC10E949D51B6
:103F10000E94564EDC01CB0127962CAD3DAD4EAD37
:103F20005FAD2797821B930BA40BB50BB7FD10C099
:103F30000E94564E9B01AC0128533F4F4F4F5F4F9D
:103F400027962CAF3DAF4EAF5FAF27970E94E14859
:103F50003BA531503BA7332309F441C02F8D38A135
:103F600049A15AA123966CAD7DAD8EAD9FAD23972F
:103F70000E945C646B017C019201A3016FA978AD82
:103F800089AD9AAD0E945C64A70196010E94716898
:103F90007B018C019201A30123966CAD7DAD8EADAA
:103FA0009FAD23970E945C644B015C012F8D38A16B
:103FB00049A15AA16FA978AD89AD9AAD0E945C6400
:103FC0009B01AC01C501B4010E9470682B013C014A
:103FD000C701D8018F8F98A3A9A3BAA34FC04FA53B
:103FE00058A9BA0180E090E00E94FB632FA138A598
:103FF00049A55AA50E945C644B015C010E94666958
:104000006B017C01C501B4010E94116B4B015C0185
:10401000A70196016B8D7C8D8D8D9E8D0E945C64B9
:104020002B013C012BA13CA14DA15EA1C501B40116
:104030000E945C64A30192010E9471682B013C0103
:10404000A50194016B8D7C8D8D8D9E8D0E945C648D
:104050004B015C012BA13CA14DA15EA1C701B601A2
:104060000E945C649B01AC01C501B4010E947068B0
:104070006F8F78A389A39AA359E15BA79201A3014B
:104080006BAD7CAD8DAD9EAD0E94716869837A8306
:104090008B839C832F8D38A149A15AA16BA97CA940
:1040A0008DA99EA90E9471686D837E838F839887F6
:1040B0002B962CAD3DAD4EAD5FAD2B9769857A85C6
:1040C0008B859C850E94716869877A878B879C871E
:1040D0002F962CAD3DAD4EAD5FAD2F976D857E8596
:1040E0008F8598890E9471686D877E878F87988BEE
:1040F000CE0101960E94EE308E01095E1F4F9E0197
:10410000235F3F4FAE01475F5F4FBE016B5F7F4F45
:10411000CE0101960E94505C882331F08FA598A9AA
:10412000019698AB8FA7ECCE80E1E4E8F4E0DE01E5
:10413000119601900D928A95E1F7CE0101960E94A9
:10414000EE308E01095E1F4F9E01235F3F4FAE018F
:10415000475F5F4FBE016B5F7F4FCE0101960E94AC
:10416000505C80E1FE013196AAE4BBE001900D9223
:104170008A95E1F70E94564E609380047093810403
:104180008093820490938304DDCB08E110E08BEDF3
:10419000C82E8FE0D82E89ECE82E80ECF82E77CD53
:1041A0002BAD3CAD4DAD5EADC701B6010E94706850
:1041B0006B017C012BA93CA94DA95EA96FA178A533
:1041C00089A59AA50E9470684B015C01A701960120
:1041D0006B8D7C8D8D8D9E8D0E945C642B013C01CE
:1041E000A50194016F8D78A189A19AA10E945C64B8
:1041F0009B01AC01C301B2010E9471682B013C011B
:10420000A50194016B8D7C8D8D8D9E8D0E945C64CB
:104210004B015C01A70196016F8D78A189A19AA13C
:104220000E945C649B01AC01C501B4010E947068EE
:10423000A30192010E94F0686B017C0120E030E054
:10424000A9010E94F663882309F494CF20E030E0AE
:10425000A901C701B6010E94F663082E000C990B54
:104260008827990F881F9927880F991F83298130E4
:10427000910559F0029799F42BED3FE049EC50E499
:10428000C701B6010E94716808C02BED3FE049EC00
:1042900050E4C701B6010E9470686B017C0120E008
:1042A00030E0A901C701B6010E94D16A87FF04C0AE
:1042B000C701B601905802C0C701B60120E030E046
:1042C00040EC51E40E945C642BED3FE049EC50E48B
:1042D0000E946B690E944F690E94E4698B01672B01
:1042E00009F0D5CC01E010E0D2CC0E9438551092F4
:1042F0000B020E94564E6093800470938104809359
:104300008204909383048091260290912702A091C9
:104310002802B091290280939C0490939D04A0935D
:104320009E04B0939F048091240290912502909363
:104330009B0480939A0484E690E0909325028093F6
:10434000240281E080937D040E9451378AE50E9417
:10435000E635382E88E50E94E635882E89E50E94EC
:10436000E6358812E4C0381411F0D82C06C0DD24DC
:10437000D394882483943324339482E50E94343682
:10438000882369F00E94AF357B018C0120E030E08A
:10439000A9010E94F663882309F499C004C0E12CA6
:1043A000F12C00EA10E4811003C0DD2009F499C06B
:1043B0009090520BC090530BB090540BA090550BA3
:1043C0009701A801692D7C2D8B2D9A2D0E94D16A11
:1043D00040904A0B50904B0B60904C0B70904D0BE3
:1043E00020914E0B30914F0B4091500B5091510B3F
:1043F0002B8F3C8F4D8F5E8F20E030E048E453E4FC
:1044000018160CF450C3B701C8010E94F66387FD6B
:1044100004C0E12CF12C08E413E480E090E0A0E873
:10442000B0E48F8B988FA98FBA8F89839A83AB83DF
:10443000BC839701A801692D7C2D8B2D9A2D0E949C
:10444000F66387FF0EC0C701D8018093520B90938B
:10445000530BA093540BB093550BCE0147960E947B
:10446000A63140924A0B50924B0B60924C0B7092CB
:104470004D0B8B8D9C8DAD8DBE8D80934E0B90938F
:104480004F0BA093500BB093510BCE0101960E949D
:10449000A6319701A8016091520B7091530B809146
:1044A000540B9091550B0E94D16A181674F4C701F1
:1044B000D8018093520B9093530BA093540BB0935D
:1044C000550BCE0147960E94A6310E943855882090
:1044D00019F080E00E94325ADD2019F081E00E943C
:1044E000325A332019F082E00E94325A0E94B631CB
:1044F00080917C0480937D0480919C0490919D0424
:10450000A0919E04B0919F0480932602909327026D
:10451000A0932802B093290280919A0490919B0461
:1045200090932502809324020E9477320BCAD82EE2
:1045300024CF88E50E94E63581115F9889E50E94C5
:10454000E63581118A988AE50E94E635882329F0AC
:104550008091080181708093060185E40E94E63510
:10456000882309F4EFC91298EDC95F988A98809161
:1045700008018170809306011298E4C90E948D336E
:104580000C94E5110E94AF350E94DD69CB010E94B9
:104590001C4F8091CD059091CE05863591051CF07C
:1045A0000E94693302C00E948D3311E00C94041202
:1045B0000E94385588E50E94E635882331F05F9ADD
:1045C0008091F9038E7F8093F90389E50E94E63597
:1045D000882331F08A9A8091F9038D7F8093F903C3
:1045E0008AE50E94E635882359F08091080180957C
:1045F0008170809306018091F9038B7F8093F9038A
:1046000085E40E94E635882309F49CC90E943B4852
:1046100099C9602F83E50E9418370C94061683E52C
:104620000E943436882391F00E94AF356093830A4C
:104630007093840A8093850A9093860A60938B0A0C
:1046400070938C0A80938D0A90938E0A80E50E9465
:104650003436882351F00E94AF356093830A7093FB
:10466000840A8093850A9093860A82E50E943436F4
:10467000882351F00E94AF356093870A7093880AAF
:104680008093890A90938A0A84E50E9434368823AD
:1046900009F458C90E94AF3560938B0A70938C0A55
:1046A00080938D0A90938E0A4DC982E40E94E6356C
:1046B0008823C1F080917E0490917F04009739F0A7
:1046C0004AE050E060E070E00E94766203C060E083
:1046D00070E0CB0160935F0A7093600A8093610A77
:1046E0009093620A83E50E94E635882351F00E9488
:1046F000AF3560938F0A7093900A8093910A9093DC
:10470000920A84E50E94E635882351F00E94AF3575
:104710006093930A7093940A8093950A9093960AF3
:104720008AE40E94E635882309F40CC90E94AF355B
:104730006B017C012AE037ED43E25CE30E94D16A21
:1047400087FD13C02AE939E949E95EE3C701B601EB
:104750000E94F66318164CF0C0929B05D0929C05FF
:10476000E0929D05F0929E05EDC80E949C4887EF5F
:1047700094E00E946148E6C84BAD5CAD452B09F45E
:1047800032C1A2968CAC9DACAEACBFACA297880EE9
:10479000991EAA1EBB1EA2962CAD3DAD4EAD5FADBF
:1047A000A297281B390B4A0B5B0B6B8D7C8D8D8D73
:1047B0009E8D0E94D767A50194010E943768C20EA2
:1047C000D31EE41EF51E54E1C516D104E104F10424
:1047D000FCF08CEEC816D104E104F1043CF490E83E
:1047E000C916D104E104F10434F420C05BEEC52EF7
:1047F000D12CE12CF12C2EEF30E040E050E02C19D0
:104800003D094E095F092B8F3C8F4D8F5E8F12C083
:1048100044E1C42ED12CE12CF12C84E190E0A0E005
:10482000B0E08B8F9C8FAD8FBE8F04C0CB8EDC8EA3
:10483000ED8EFE8EB701A6018AEF93E00E948148BB
:104840004B8D5C8D6D8D7E8D85EF93E00E94814850
:104850004BA95FA96FAD24967FAD24978EEE93E0B0
:104860000E94704828964FAD28972C965FAD2C97E4
:1048700060966FAD609761967FAD619787EE93E02C
:104880000E947048ABADBCAD13970CF4ACC06B8DFF
:104890007C8D8D8D9E8D0E94FD6320E030E040E890
:1048A00050E40E945C646BA77CA78DA79EA72BA9F0
:1048B0003FA94FAD24965FAD249728966FAD2897FA
:1048C0002C967FAD2C9760968FAD609761969FADCB
:1048D00061970E9470682BED3FE049E450E40E942C
:1048E0005C6420E030E040E05FE30E945C649B0198
:1048F000AC016BA57CA58DA59EA50E946B696BABD9
:104900007CAB8DAB9EABC501B4010E94FD632FE66D
:1049100032E143E85AE30E945C644B015C012AE9FE
:1049200039E949E15FE36BA97CA98DA99EA90E94A1
:104930005C646BA77CA78DA79EA79B01AC010E941E
:104940007168A50194010E946B696D966CAF7DAF93
:104950008EAF9FAF6D972BA53CA54DA55EA5C5015C
:10496000B4010E945C6420E030E040E05EE30E941D
:104970005C6469966CAF7DAF8EAF9FAF69974BA9B2
:104980005CA96DA97EA981EE93E00E947048B501F3
:10499000A4018BED93E00E9470488AE00E94584881
:1049A0008CEC93E00E9461484BA55CA56DA57EA5AB
:1049B00086EC93E00E9470486D964CAD5DAD6EAD97
:1049C0007FAD6D9780EC93E00E94704869964CAD86
:1049D0005DAD6EAD7FAD69978AEB93E00E94704844
:1049E0008AE00E9458488B8D9C8DAD8DBE8D8C0DBC
:1049F0009D1DAE1DBF1DB595A79597958795809375
:104A0000CF05EBADFCAD3196FCAFEBAFFF8DFBAB53
:104A10002BA12FAB3FA13FAF4FA524964FAF2497BB
:104A20005301420151E06E965FAF6E970C94821A6B
:104A3000B7FAB094B7F8B094D7018D929D92AD9229
:104A4000BC9213970C94411C0E949C488CE892E005
:104A50000E9461480C94A21C0C5F1F4FBFEFCB1A41
:104A6000DB0AE9EBF2E0E017F10711F00C94111CFE
:104A700092EEE92E93E0F92E10E0F10181919191EF
:104A8000A191B1911F01F70181939193A193B193EA
:104A90007F01812F0E94125A1F5F133071F70E940D
:104AA00077320C94A21C692D7C2D8B2D9A2D0E949F
:104AB000F66387FFAECC80E090E0A0E8B0E48F8B97
:104AC000988FA98FBA8F89839A83AB83BC83E92C93
:104AD000FC2C0B2D1A2DC5CC0F931F93CF93811156
:104AE00013C0C42F8B010E94A04889E898E00E945F
:104AF0006148C8010E946148CC2331F08AE0CF911F
:104B00001F910F910C945848CF911F910F910895C8
:104B10000F930FB70F9300916E000F930B7F0093CD
:104B20006E0000916F000D7F00936F000F930BB725
:104B30000F930CB70F921F922F933F934F935F9356
:104B40006F937F938F939F93AF93BF93EF93FF9355
:104B500011240E940A26FF91EF91BF91AF919F917E
:104B60008F917F916F915F914F913F912F911F9006
:104B70000F900CBF0F910BBF0F910260F894009340
:104B80006F000F9100936E000F910FBF0F9118955A
:104B90000000000000008091B90A80FF03C08998DE
:104BA0008FEF02C0899A81E08093A1048091B90AB5
:104BB000869580FF03C08F9A8FEF02C08F9881E0A7
:104BC0008093A2048091B90A8695869580FF07C0DC
:104BD00080910B018270809309018FEF07C0809153
:104BE0000B01809582708093090181E08093A3047A
:104BF0008091B90A86958695869580FF03C01698A0
:104C00008FEF02C0169A81E08093A4040000000098
:104C1000000008952F923F924F925F926F927F9281
:104C20008F929F92AF92BF92CF92DF92EF92FF92BC
:104C30000F931F93CF93DF938FEF9FEF9093890094
:104C400080938800CAE0212C312C78948091E6046E
:104C50009091E704A091E804B091E904892B8A2B94
:104C60008B2B71F08091E6049091E704A091E80409
:104C7000B091E904892B8A2B8B2B09F0E3C4C4C1C2
:104C800080910A0B8823D1F010920A0B8091080BB7
:104C90009091090B892B91F01092090B1092080B3F
:104CA0001092A0049091720B8091730B981731F0C1
:104CB0008091730B8F5F8F708093730B8091080BC3
:104CC0009091090B892B71F2C090E204D090E3041B
:104CD000E090E404F090E5044091DE045091DF049C
:104CE0006091E0047091E1040091D10410E020E0B3
:104CF00030E0DB01CA018C199D09AE09BF09081714
:104D000019072A073B0710F4D901C801D82F8C0DC9
:104D10009D1DAE1DBF1D8093E2049093E304A093FC
:104D2000E404B093E504E1E0C090A904D090AA04A3
:104D3000E090AB04F090AC048091B9049091BA0477
:104D4000A091BB04B091BC04C80ED91EEA1EFB1E84
:104D5000C092B904D092BA04E092BB04F092BC04B1
:104D6000F7FC31C08091A104082E000C990BAA0B0E
:104D7000BB0B4091170B5091180B6091190B709160
:104D80001A0B840F951FA61FB71F8093170B9093C4
:104D9000180BA093190BB0931A0B8091A504909156
:104DA000A604A091A704B091A80426013701481ACF
:104DB000590A6A0A7B0A4092B9045092BA04609276
:104DC000BB047092BC040091AD041091AE0420911C
:104DD000AF043091B0048091BD049091BE04A091C5
:104DE000BF04B091C004080F191F2A1F3B1F009376
:104DF000BD041093BE042093BF043093C00437FD5C
:104E000031C08091A204082E000C990BAA0BBB0B99
:104E100040911B0B50911C0B60911D0B70911E0B50
:104E2000840F951FA61FB71F80931B0B90931C0B1D
:104E3000A0931D0BB0931E0B8091A5049091A60426
:104E4000A091A704B091A80438014901681A790A11
:104E50008A0A9B0A6092BD047092BE048092BF04CD
:104E60009092C0044091B1045091B2046091B30497
:104E70007091B4048091C1049091C204A091C304C4
:104E8000B091C404480F591F6A1F7B1F4093C1048F
:104E90005093C2046093C3047093C40477FD31C07F
:104EA0008091A304082E000C990BAA0BBB0B8090D9
:104EB0001F0B9090200BA090210BB090220B880D1F
:104EC000991DAA1DBB1D80931F0B9093200BA093CF
:104ED000210BB093220B8091A5049091A604A09180
:104EE000A704B091A8044A015B01881A990AAA0A8A
:104EF000BB0A8092C1049092C204A092C304B092F3
:104F0000C4048090B5049090B604A090B704B0900B
:104F1000B8048091C5049091C604A091C704B091D3
:104F2000C804880D991DAA1DBB1D8093C5049093CC
:104F3000C604A093C704B093C804B7FD31C08090E5
:104F4000A404082C000C9908AA08BB084090230B65
:104F50005090240B6090250B7090260B840C951CB0
:104F6000A61CB71C8092230B9092240BA092250BB9
:104F7000B092260B8090A5049090A604A090A70460
:104F8000B090A8042C013D01481859086A087B0814
:104F90004092C5045092C6046092C7047092C8043F
:104FA000E11104C0E0918400F0918500F7FE889A39
:104FB00037FF8E9A77FD06C0E0910B01E095E8700F
:104FC000E0930901B7FF149AE0918400F091850005
:104FD000E0918400F0918500F7FE889837FF8E9865
:104FE00077FD05C020910B01287020930901B7FFC0
:104FF0001498DD2321F08091840090918500D15098
:10500000E0E009F091CE2ECEE091080BF091090B73
:10501000309709F496C48091E2049091E304A09142
:10502000E404B091E5044091DE045091DF04609106
:10503000E0047091E10484179507A607B707D0F044
:105040001092090B1092080B1092A0049091720B11
:105050008091730B981709F474C48091730B8F5F60
:105060008F708093730BB0EDCB2EB7E0DB2EE12C6D
:10507000F12C4EC14091DA045091DB046091DC04C4
:105080007091DD04481759076A077B0708F467C069
:105090004091D6045091D7046091D8047091D904FE
:1050A00081A992A9A3A9B4A9DD27499F112D5A9FCF
:1050B00090016A9F300D699F200D311D4A9F100D90
:1050C000211D3D1F599F100D211D3D1F689F100D73
:1050D000211D3D1F589F110D2D1F3D1F16952D1F82
:1050E0003D1FB49F200D311DB59F300D112482ADA1
:1050F00093ADA4ADB5AD820F931FA11DB11D8093DB
:10510000D2049093D304A093D404B093D50406A9F9
:1051100017A920AD31AD081719072A073B0740F43E
:105120000093D2041093D3042093D4043093D50475
:105130008090D2049090D304A090D404B090D50471
:1051400081E292E121E0FC01C590D590E590F490D8
:10515000C814D904EA04FB0408F4BDC2C7C24091D4
:10516000CD045091CE046091CF047091D0044817C3
:1051700059076A077B0708F063C04091C904509142
:10518000CA046091CB047091CC0481A992A9A3A90F
:10519000B4A9DD27499F112D5A9F90016A9F300DB8
:1051A000699F200D311D4A9F100D211D3D1F599FE4
:1051B000100D211D3D1F689F100D211D3D1F589F83
:1051C000110D2D1F3D1F16952D1F3D1FB49F200D46
:1051D000311DB59F300D1124C901A0E0B0E08090D1
:1051E000D2049090D304A090D404B090D504FE963D
:1051F00088159905AA05BB0580F4008111812281DB
:105200003381881A990AAA0ABB0A80169106A20657
:10521000B30638F44801590104C080809180A2800F
:10522000B38081E292E121E0FC01C590D590E59048
:10523000F490C814D904EA04FB0408F4BFC2C9C23C
:1052400080912A0290912B02A0912C02B0912D0204
:10525000B7FF56C086A997A9A0ADB1AD21E232E152
:1052600041E0F901C590D590E590F490C816D906B3
:10527000EA06FB0658F4B695A79597958795440FCF
:105280002C5F3F4FF2E12D333F0759F74093D10494
:1052900080329105A105B10508F426C38097A109C4
:1052A000B109811528E09207A105B10508F4F9C2FA
:1052B00044E0949F900111242F5D314FF901329603
:1052C00045915491EE27859FB001849F610D7E1F0B
:1052D00006946E1F7E1F1124CB01A0E0B0E0F901FF
:1052E0004591549160E070E0481B590B6A0B7B0BB1
:1052F00040932A0250932B0260932C0270932D024C
:10530000C0902A02D0902B02E0902C02F0902D0247
:105310008091080B9091090B892B09F08BC10E9499
:1053200093579093090B8093080B892B09F482C142
:10533000E091080BF091090B808183FF44C0858DBB
:10534000968DA78DB0A1418D528D638D748D058989
:1053500016892789308D0093170B1093180B209313
:10536000190B30931A0B40931B0B50931C0B60933B
:105370001D0B70931E0B80931F0B9093200BA0931B
:10538000210BB093220B81A192A1A3A1B4A1809380
:10539000230B9093240BA093250BB093260B109214
:1053A000090B1092080B1092A0049091720B80913F
:1053B000730B981709F4B3CF8091730B8F5F8F70C5
:1053C0008093730BACCFC588D688E788F08C81E0DA
:1053D000C114D104E104F10409F480E0018D128DBF
:1053E000238D348D011511052105310509F08260E9
:1053F000458D568D678D70A141155105610571056B
:1054000009F084608093A0041092C9041092CA0429
:105410001092CB041092CC041092D6041092D704B0
:105420001092D8041092D90485A196A1A7A1B0A585
:105430008093DE049093DF04A093E004B093E10432
:10544000882499245401881A990AAA0ABB0A8092CE
:10545000B9049092BA04A092BB04B092BC048092AA
:10546000BD049092BE04A092BF04B092C00480928A
:10547000C1049092C204A092C304B092C40480926A
:10548000C5049092C604A092C704B092C80481A03B
:1054900092A0A3A0B4A0880C991CAA1CBB1CCC0C85
:1054A000DD1CEE1CFF1CC092A904D092AA04E0925D
:1054B000AB04F092AC04000F111F221F331F0093A6
:1054C000AD041093AE042093AF043093B004440FA6
:1054D000551F661F771F4093B1045093B204609329
:1054E000B3047093B4048092B5049092B604A09271
:1054F000B704B092B804880F991FAA1FBB1F8093EE
:10550000A5049093A604A093A704B093A8041092B6
:10551000E2041092E3041092E4041092E50481A5E1
:1055200092A5A3A5B4A58093DA049093DB04A0937D
:10553000DC04B093DD0485A596A5A7A5B0A980934A
:10554000CD049093CE04A093CF04B093D00485A94A
:105550009091B90A891721F08093B90A0E94C82551
:1055600080917D0481110E949E326FEF7FEFCB010D
:1055700060932A0270932B0280932C0290932D0249
:10558000E091080BF091090B82AD93ADA4ADB5ADE0
:105590008093D2049093D304A093D404B093D50401
:1055A00021E232E141E0F901C590D590E590F49017
:1055B000C816D906EA06FB0670F4B695A795979526
:1055C0008795440F2C5F3F4F6DE3462E62E1562EC8
:1055D0004216530641F74093D10480329105A1054C
:1055E000B10508F4A9C18097A109B109811578E036
:1055F0009707A105B10508F47CC1F4E09F9F9001D5
:1056000011242F5D314FF901329645915491EE27C7
:10561000859FB001849F610D7E1F06946E1F7E1FC3
:105620001124F901C590D490E12CF12CC61AD70AA7
:10563000E108F108C092E604D092E704E092E804A1
:10564000F092E9048091E6049091E704A091E804C7
:10565000B091E9048F3F2FEF9207A105B10528F023
:105660004FEF5FEF60E070E002C0AC01BD01841B52
:10567000950BA60BB70B8093E6049093E704A093D9
:10568000E804B093E904F894809184009091850037
:105690004096C15039F0240E351E2816390608F4FC
:1056A000D4CA01C01C0130928900209288007894ED
:1056B000DF91CF911F910F91FF90EF90DF90CF90EE
:1056C000BF90AF909F908F907F906F905F904F9022
:1056D0003F902F900895B694A79497948794220FA3
:1056E000049632E18D33930709F02DCD2093D10438
:1056F00080E288169104A104B10408F459C020E2A4
:10570000821A9108A108B108811438E09306A10417
:10571000B104F8F0A4E09A9EC00111248F5D914F6E
:10572000FC01329625913491F82DEE27F39FD0019C
:10573000F29FA10DBE1F0694AE1FBE1F1124FC01D7
:10574000C590D490E12CF12CCA1ADB0AE108F108CB
:1057500022C0D501C401B695A79597958795FC0100
:10576000EC7FCF018F5D954FFC01C590D490FC017B
:10577000329625913491E82DE770E29FC001E39FB6
:10578000900D1124A3E096958795AA95E1F7C81A84
:10579000D90AE12CF12C4C0D5D1D6E1D7F1D40932F
:1057A000D6045093D7046093D8047093D904B0CD35
:1057B000A0E28A2E912CA12CB12CA1CFB694A79453
:1057C00097948794220F0496A2E18D339A0709F0EB
:1057D0002BCD2093D10490E289169104A104B10449
:1057E00008F459C020E2821A9108A108B108811476
:1057F00038E09306A104B104F8F0A4E09A9EC00139
:1058000011248F5D914FFC01329625913491F82D32
:10581000EE27F39FD001F29FA10DBE1F0694AE1F8D
:10582000BE1F1124FC01C590D490E12CF12CCA1AA2
:10583000DB0AE108F10822C0D501C401B695A7959D
:1058400097958795FC01EC7FCF018F5D954FFC010B
:10585000C590D490FC01329625913491E82DE770E3
:10586000E29FC001E39F900D1124E3E09695879598
:10587000EA95E1F7C81AD90AE12CF12C4C0D5D1D0F
:105880006E1D7F1D4093C9045093CA046093CB04DE
:105890007093CC043DCDF0E28F2E912CA12CB12C35
:1058A000A1CFAC01BD017695679557954795FA0153
:1058B000EC7F9F012F5D354FF90145915491F9011E
:1058C0003296659174918770869F9001879F300D05
:1058D0001124C90123E0969587952A95E1F7481B85
:1058E000590B60E070E004CD80E290E0A0E0B0E011
:1058F000D5CCAC01BD017695679557954795FA01D2
:10590000EC7F9F012F5D354FF901C590D490F901CF
:105910003296459154918770849F9001859F300DF8
:105920001124C90113E0969587951A95E1F7C81AD5
:10593000D90AE12CF12C7ECE80E290E0A0E0B0E02C
:1059400052CE80EDC82E87E0D82EE12CF12CE7CC8A
:105950002F923F924F925F926F927F928F929F927F
:10596000AF92BF92CF92DF92EF92FF920F931F936D
:10597000CF93DF9300D0CDB7DEB7AFE4BAE020E03D
:1059800030E0C9012430310514F083E090E0880F45
:10599000991F880F991FFC01E758F74F45915591C2
:1059A000659174914D935D936D937D93FC01E759DF
:1059B000F74F459155916591749150964D935D9334
:1059C0006D937C935397FC01E75AF74F459155919E
:1059D0006591749190964D935D936D937C9393979D
:1059E0002F5F3F4F2430310509F0CBCF80E29EE49A
:1059F000A0E0B0E080935F0A9093600AA093610AF0
:105A0000B093620A80E090E8ABE3B5E48093830A48
:105A10009093840AA093850AB093860A8093870A9C
:105A20009093880AA093890AB0938A0A80938B0A7C
:105A300090938C0AA0938D0AB0938E0A10928F0ACD
:105A40001092900A1092910A1092920A1092930A60
:105A50001092940A1092950A1092960A84EF9DEF84
:105A6000A4E5BCE380939B0590939C05A0939D05C2
:105A7000B0939E051092EA031092EB031092EC0390
:105A80001092ED031092E6031092E7031092E803E0
:105A90001092E9031092E2031092E3031092E403E0
:105AA0001092E5038AE999E9A1EBB1E48093D0056E
:105AB0009093D105A093D205B093D30586EA91E3E4
:105AC000A5E3BEE38093D4059093D505A093D605B6
:105AD000B093D70580E493EFADE2B4E48093D805AA
